{"abi":[{"type":"constructor","inputs":[{"name":"_goal","type":"uint256","internalType":"uint256"},{"name":"_durationDays","type":"uint256","internalType":"uint256"}],"stateMutability":"nonpayable"},{"type":"function","name":"contribute","inputs":[],"outputs":[],"stateMutability":"payable"},{"type":"function","name":"contributions","inputs":[{"name":"","type":"address","internalType":"address"}],"outputs":[{"name":"","type":"uint256","internalType":"uint256"}],"stateMutability":"view"},{"type":"function","name":"deadline","inputs":[],"outputs":[{"name":"","type":"uint256","internalType":"uint256"}],"stateMutability":"view"},{"type":"function","name":"forgeNFT","inputs":[],"outputs":[{"name":"","type":"address","internalType":"contract ForgeNFT"}],"stateMutability":"view"},{"type":"function","name":"forgeToken","inputs":[],"outputs":[{"name":"","type":"address","internalType":"contract ForgeToken"}],"stateMutability":"view"},{"type":"function","name":"goal","inputs":[],"outputs":[{"name":"","type":"uint256","internalType":"uint256"}],"stateMutability":"view"},{"type":"function","name":"owner","inputs":[],"outputs":[{"name":"","type":"address","internalType":"address"}],"stateMutability":"view"},{"type":"function","name":"totalRaised","inputs":[],"outputs":[{"name":"","type":"uint256","internalType":"uint256"}],"stateMutability":"view"},{"type":"function","name":"withdraw","inputs":[],"outputs":[],"stateMutability":"nonpayable"},{"type":"event","name":"Contributed","inputs":[{"name":"backer","type":"address","indexed":true,"internalType":"address"},{"name":"amount","type":"uint256","indexed":false,"internalType":"uint256"}],"anonymous":false},{"type":"event","name":"Withdrawn","inputs":[{"name":"owner","type":"address","indexed":true,"internalType":"address"},{"name":"amount","type":"uint256","indexed":false,"internalType":"uint256"}],"anonymous":false}],"bytecode":{"object":"0x608060405234801561000f575f5ffd5b50604051614abd380380614abd833981810160405281019061003191906101b9565b3360025f6101000a81548173ffffffffffffffffffffffffffffffffffffffff021916908373ffffffffffffffffffffffffffffffffffffffff1602179055508160038190555062015180816100879190610224565b426100929190610265565b6004819055506040516100a490610168565b604051809103905ff0801580156100bd573d5f5f3e3d5ffd5b505f5f6101000a81548173ffffffffffffffffffffffffffffffffffffffff021916908373ffffffffffffffffffffffffffffffffffffffff16021790555060405161010890610175565b604051809103905ff080158015610121573d5f5f3e3d5ffd5b5060015f6101000a81548173ffffffffffffffffffffffffffffffffffffffff021916908373ffffffffffffffffffffffffffffffffffffffff1602179055505050610298565b61168580610e0183390190565b6126378061248683390190565b5f5ffd5b5f819050919050565b61019881610186565b81146101a2575f5ffd5b50565b5f815190506101b38161018f565b92915050565b5f5f604083850312156101cf576101ce610182565b5b5f6101dc858286016101a5565b92505060206101ed858286016101a5565b9150509250929050565b7f4e487b71000000000000000000000000000000000000000000000000000000005f52601160045260245ffd5b5f61022e82610186565b915061023983610186565b925082820261024781610186565b9150828204841483151761025e5761025d6101f7565b5b5092915050565b5f61026f82610186565b915061027a83610186565b9250828201905080821115610292576102916101f7565b5b92915050565b610b5c806102a55f395ff3fe608060405260043610610085575f3560e01c806342e94c901161005857806342e94c901461011d5780638da5cb5b14610159578063bb9ed1b114610183578063c5c4744c146101ad578063d7bb99ba146101d757610085565b806325cb9e511461008957806329dcb0cf146100b35780633ccfd60b146100dd57806340193883146100f3575b5f5ffd5b348015610094575f5ffd5b5061009d6101e1565b6040516100aa91906106d4565b60405180910390f35b3480156100be575f5ffd5b506100c7610206565b6040516100d49190610705565b60405180910390f35b3480156100e8575f5ffd5b506100f161020c565b005b3480156100fe575f5ffd5b50610107610402565b6040516101149190610705565b60405180910390f35b348015610128575f5ffd5b50610143600480360381019061013e919061075d565b610408565b6040516101509190610705565b60405180910390f35b348015610164575f5ffd5b5061016d61041d565b60405161017a9190610797565b60405180910390f35b34801561018e575f5ffd5b50610197610442565b6040516101a491906107d0565b60405180910390f35b3480156101b8575f5ffd5b506101c1610466565b6040516101ce9190610705565b60405180910390f35b6101df61046c565b005b60015f9054906101000a900473ffffffffffffffffffffffffffffffffffffffff1681565b60045481565b60025f9054906101000a900473ffffffffffffffffffffffffffffffffffffffff1673ffffffffffffffffffffffffffffffffffffffff163373ffffffffffffffffffffffffffffffffffffffff161461029b576040517f08c379a000000000000000000000000000000000000000000000000000000000815260040161029290610843565b60405180910390fd5b6004544210156102e0576040517f08c379a00000000000000000000000000000000000000000000000000000000081526004016102d7906108ab565b60405180910390fd5b6003546005541015610327576040517f08c379a000000000000000000000000000000000000000000000000000000000815260040161031e90610913565b60405180910390fd5b5f47905060025f9054906101000a900473ffffffffffffffffffffffffffffffffffffffff1673ffffffffffffffffffffffffffffffffffffffff166108fc8290811502906040515f60405180830381858888f1935050505015801561038f573d5f5f3e3d5ffd5b5060025f9054906101000a900473ffffffffffffffffffffffffffffffffffffffff1673ffffffffffffffffffffffffffffffffffffffff167f7084f5476618d8e60b11ef0d7d3f06914655adb8793e28ff7f018d4c76d505d5826040516103f79190610705565b60405180910390a250565b60035481565b6006602052805f5260405f205f915090505481565b60025f9054906101000a900473ffffffffffffffffffffffffffffffffffffffff1681565b5f5f9054906101000a900473ffffffffffffffffffffffffffffffffffffffff1681565b60055481565b60045442106104b0576040517f08c379a00000000000000000000000000000000000000000000000000000000081526004016104a79061097b565b60405180910390fd5b5f34116104f2576040517f08c379a00000000000000000000000000000000000000000000000000000000081526004016104e9906109e3565b60405180910390fd5b3460065f3373ffffffffffffffffffffffffffffffffffffffff1673ffffffffffffffffffffffffffffffffffffffff1681526020019081526020015f205f82825461053e9190610a2e565b925050819055503460055f8282546105569190610a2e565b925050819055505f670de0b6b3a76400006103e8346105759190610a61565b61057f9190610acf565b90505f5f9054906101000a900473ffffffffffffffffffffffffffffffffffffffff1673ffffffffffffffffffffffffffffffffffffffff166340c10f1933836040518363ffffffff1660e01b81526004016105dc929190610aff565b5f604051808303815f87803b1580156105f3575f5ffd5b505af1158015610605573d5f5f3e3d5ffd5b505050503373ffffffffffffffffffffffffffffffffffffffff167f62722348256371b5147820d6cad90c40fd2da1ccee18c3ed52c0bca5a61dbbab3460405161064f9190610705565b60405180910390a250565b5f73ffffffffffffffffffffffffffffffffffffffff82169050919050565b5f819050919050565b5f61069c6106976106928461065a565b610679565b61065a565b9050919050565b5f6106ad82610682565b9050919050565b5f6106be826106a3565b9050919050565b6106ce816106b4565b82525050565b5f6020820190506106e75f8301846106c5565b92915050565b5f819050919050565b6106ff816106ed565b82525050565b5f6020820190506107185f8301846106f6565b92915050565b5f5ffd5b5f61072c8261065a565b9050919050565b61073c81610722565b8114610746575f5ffd5b50565b5f8135905061075781610733565b92915050565b5f602082840312156107725761077161071e565b5b5f61077f84828501610749565b91505092915050565b61079181610722565b82525050565b5f6020820190506107aa5f830184610788565b92915050565b5f6107ba826106a3565b9050919050565b6107ca816107b0565b82525050565b5f6020820190506107e35f8301846107c1565b92915050565b5f82825260208201905092915050565b7f4e6f74206f776e657200000000000000000000000000000000000000000000005f82015250565b5f61082d6009836107e9565b9150610838826107f9565b602082019050919050565b5f6020820190508181035f83015261085a81610821565b9050919050565b7f43616d706169676e206e6f7420656e64656400000000000000000000000000005f82015250565b5f6108956012836107e9565b91506108a082610861565b602082019050919050565b5f6020820190508181035f8301526108c281610889565b9050919050565b7f476f616c206e6f742072656163686564000000000000000000000000000000005f82015250565b5f6108fd6010836107e9565b9150610908826108c9565b602082019050919050565b5f6020820190508181035f83015261092a816108f1565b9050919050565b7f43616d706169676e20656e6465640000000000000000000000000000000000005f82015250565b5f610965600e836107e9565b915061097082610931565b602082019050919050565b5f6020820190508181035f83015261099281610959565b9050919050565b7f4d7573742073656e6420455448000000000000000000000000000000000000005f82015250565b5f6109cd600d836107e9565b91506109d882610999565b602082019050919050565b5f6020820190508181035f8301526109fa816109c1565b9050919050565b7f4e487b71000000000000000000000000000000000000000000000000000000005f52601160045260245ffd5b5f610a38826106ed565b9150610a43836106ed565b9250828201905080821115610a5b57610a5a610a01565b5b92915050565b5f610a6b826106ed565b9150610a76836106ed565b9250828202610a84816106ed565b91508282048414831517610a9b57610a9a610a01565b5b5092915050565b7f4e487b71000000000000000000000000000000000000000000000000000000005f52601260045260245ffd5b5f610ad9826106ed565b9150610ae4836106ed565b925082610af457610af3610aa2565b5b828204905092915050565b5f604082019050610b125f830185610788565b610b1f60208301846106f6565b939250505056fea2646970667358221220ab4cfbb92b059f974f11273614872bff1f9a45c92471caf7adb6e53a9ba62db264736f6c63430008210033608060405234801561000f575f5ffd5b50336040518060400160405280600a81526020017f466f726765546f6b656e000000000000000000000000000000000000000000008152506040518060400160405280600581526020017f464f524745000000000000000000000000000000000000000000000000000000815250816003908161008c9190610435565b50806004908161009c9190610435565b5050505f73ffffffffffffffffffffffffffffffffffffffff168173ffffffffffffffffffffffffffffffffffffffff160361010f575f6040517f1e4fbdf70000000000000000000000000000000000000000000000000000000081526004016101069190610543565b60405180910390fd5b61011e8161012460201b60201c565b5061055c565b5f60055f9054906101000a900473ffffffffffffffffffffffffffffffffffffffff1690508160055f6101000a81548173ffffffffffffffffffffffffffffffffffffffff021916908373ffffffffffffffffffffffffffffffffffffffff1602179055508173ffffffffffffffffffffffffffffffffffffffff168173ffffffffffffffffffffffffffffffffffffffff167f8be0079c531659141344cd1fd0a4f28419497f9722a3daafe3b4186f6b6457e060405160405180910390a35050565b5f81519050919050565b7f4e487b71000000000000000000000000000000000000000000000000000000005f52604160045260245ffd5b7f4e487b71000000000000000000000000000000000000000000000000000000005f52602260045260245ffd5b5f600282049050600182168061026257607f821691505b6020821081036102755761027461021e565b5b50919050565b5f819050815f5260205f209050919050565b5f6020601f8301049050919050565b5f82821b905092915050565b5f600883026102d77fffffffffffffffffffffffffffffffffffffffffffffffffffffffffffffffff8261029c565b6102e1868361029c565b95508019841693508086168417925050509392505050565b5f819050919050565b5f819050919050565b5f61032561032061031b846102f9565b610302565b6102f9565b9050919050565b5f819050919050565b61033e8361030b565b61035261034a8261032c565b8484546102a8565b825550505050565b5f5f905090565b61036961035a565b610374818484610335565b505050565b5f5b8281101561039a5761038f5f828401610361565b60018101905061037b565b505050565b601f8211156103ed57828211156103ec576103b98161027b565b6103c28361028d565b6103cb8561028d565b60208610156103d8575f90505b8083016103e782840382610379565b505050505b5b505050565b5f82821c905092915050565b5f61040d5f19846008026103f2565b1980831691505092915050565b5f61042583836103fe565b9150826002028217905092915050565b61043e826101e7565b67ffffffffffffffff811115610457576104566101f1565b5b610461825461024b565b61046c82828561039f565b5f60209050601f83116001811461049d575f841561048b578287015190505b610495858261041a565b8655506104fc565b601f1984166104ab8661027b565b5f5b828110156104d2578489015182556001820191506020850194506020810190506104ad565b868310156104ef57848901516104eb601f8916826103fe565b8355505b6001600288020188555050505b505050505050565b5f73ffffffffffffffffffffffffffffffffffffffff82169050919050565b5f61052d82610504565b9050919050565b61053d81610523565b82525050565b5f6020820190506105565f830184610534565b92915050565b61111c806105695f395ff3fe608060405234801561000f575f5ffd5b50600436106100cd575f3560e01c806370a082311161008a57806395d89b411161006457806395d89b41146101ff578063a9059cbb1461021d578063dd62ed3e1461024d578063f2fde38b1461027d576100cd565b806370a08231146101a7578063715018a6146101d75780638da5cb5b146101e1576100cd565b806306fdde03146100d1578063095ea7b3146100ef57806318160ddd1461011f57806323b872dd1461013d578063313ce5671461016d57806340c10f191461018b575b5f5ffd5b6100d9610299565b6040516100e69190610d95565b60405180910390f35b61010960048036038101906101049190610e46565b610329565b6040516101169190610e9e565b60405180910390f35b61012761034b565b6040516101349190610ec6565b60405180910390f35b61015760048036038101906101529190610edf565b610354565b6040516101649190610e9e565b60405180910390f35b610175610382565b6040516101829190610f4a565b60405180910390f35b6101a560048036038101906101a09190610e46565b61038a565b005b6101c160048036038101906101bc9190610f63565b6103a0565b6040516101ce9190610ec6565b60405180910390f35b6101df6103e5565b005b6101e96103f8565b6040516101f69190610f9d565b60405180910390f35b610207610420565b6040516102149190610d95565b60405180910390f35b61023760048036038101906102329190610e46565b6104b0565b6040516102449190610e9e565b60405180910390f35b61026760048036038101906102629190610fb6565b6104d2565b6040516102749190610ec6565b60405180910390f35b61029760048036038101906102929190610f63565b610554565b005b6060600380546102a890611021565b80601f01602080910402602001604051908101604052809291908181526020018280546102d490611021565b801561031f5780601f106102f65761010080835404028352916020019161031f565b820191905f5260205f20905b81548152906001019060200180831161030257829003601f168201915b5050505050905090565b5f5f6103336105d8565b90506103408185856105df565b600191505092915050565b5f600254905090565b5f5f61035e6105d8565b905061036b8582856105f1565b610376858585610684565b60019150509392505050565b5f6012905090565b610392610774565b61039c82826107fb565b5050565b5f5f5f8373ffffffffffffffffffffffffffffffffffffffff1673ffffffffffffffffffffffffffffffffffffffff1681526020019081526020015f20549050919050565b6103ed610774565b6103f65f61087a565b565b5f60055f9054906101000a900473ffffffffffffffffffffffffffffffffffffffff16905090565b60606004805461042f90611021565b80601f016020809104026020016040519081016040528092919081815260200182805461045b90611021565b80156104a65780601f1061047d576101008083540402835291602001916104a6565b820191905f5260205f20905b81548152906001019060200180831161048957829003601f168201915b5050505050905090565b5f5f6104ba6105d8565b90506104c7818585610684565b600191505092915050565b5f60015f8473ffffffffffffffffffffffffffffffffffffffff1673ffffffffffffffffffffffffffffffffffffffff1681526020019081526020015f205f8373ffffffffffffffffffffffffffffffffffffffff1673ffffffffffffffffffffffffffffffffffffffff1681526020019081526020015f2054905092915050565b61055c610774565b5f73ffffffffffffffffffffffffffffffffffffffff168173ffffffffffffffffffffffffffffffffffffffff16036105cc575f6040517f1e4fbdf70000000000000000000000000000000000000000000000000000000081526004016105c39190610f9d565b60405180910390fd5b6105d58161087a565b50565b5f33905090565b6105ec838383600161093d565b505050565b5f6105fc84846104d2565b90507fffffffffffffffffffffffffffffffffffffffffffffffffffffffffffffffff81101561067e578181101561066f578281836040517ffb8f41b200000000000000000000000000000000000000000000000000000000815260040161066693929190611051565b60405180910390fd5b61067d84848484035f61093d565b5b50505050565b5f73ffffffffffffffffffffffffffffffffffffffff168373ffffffffffffffffffffffffffffffffffffffff16036106f4575f6040517f96c6fd1e0000000000000000000000000000000000000000000000000000000081526004016106eb9190610f9d565b60405180910390fd5b5f73ffffffffffffffffffffffffffffffffffffffff168273ffffffffffffffffffffffffffffffffffffffff1603610764575f6040517fec442f0500000000000000000000000000000000000000000000000000000000815260040161075b9190610f9d565b60405180910390fd5b61076f838383610b0c565b505050565b61077c6105d8565b73ffffffffffffffffffffffffffffffffffffffff1661079a6103f8565b73ffffffffffffffffffffffffffffffffffffffff16146107f9576107bd6105d8565b6040517f118cdaa70000000000000000000000000000000000000000000000000000000081526004016107f09190610f9d565b60405180910390fd5b565b5f73ffffffffffffffffffffffffffffffffffffffff168273ffffffffffffffffffffffffffffffffffffffff160361086b575f6040517fec442f050000000000000000000000000000000000000000000000000000000081526004016108629190610f9d565b60405180910390fd5b6108765f8383610b0c565b5050565b5f60055f9054906101000a900473ffffffffffffffffffffffffffffffffffffffff1690508160055f6101000a81548173ffffffffffffffffffffffffffffffffffffffff021916908373ffffffffffffffffffffffffffffffffffffffff1602179055508173ffffffffffffffffffffffffffffffffffffffff168173ffffffffffffffffffffffffffffffffffffffff167f8be0079c531659141344cd1fd0a4f28419497f9722a3daafe3b4186f6b6457e060405160405180910390a35050565b5f73ffffffffffffffffffffffffffffffffffffffff168473ffffffffffffffffffffffffffffffffffffffff16036109ad575f6040517fe602df050000000000000000000000000000000000000000000000000000000081526004016109a49190610f9d565b60405180910390fd5b5f73ffffffffffffffffffffffffffffffffffffffff168373ffffffffffffffffffffffffffffffffffffffff1603610a1d575f6040517f94280d62000000000000000000000000000000000000000000000000000000008152600401610a149190610f9d565b60405180910390fd5b8160015f8673ffffffffffffffffffffffffffffffffffffffff1673ffffffffffffffffffffffffffffffffffffffff1681526020019081526020015f205f8573ffffffffffffffffffffffffffffffffffffffff1673ffffffffffffffffffffffffffffffffffffffff1681526020019081526020015f20819055508015610b06578273ffffffffffffffffffffffffffffffffffffffff168473ffffffffffffffffffffffffffffffffffffffff167f8c5be1e5ebec7d5bd14f71427d1e84f3dd0314c0f7b2291e5b200ac8c7c3b92584604051610afd9190610ec6565b60405180910390a35b50505050565b5f73ffffffffffffffffffffffffffffffffffffffff168373ffffffffffffffffffffffffffffffffffffffff1603610b5c578060025f828254610b5091906110b3565b92505081905550610c2a565b5f5f5f8573ffffffffffffffffffffffffffffffffffffffff1673ffffffffffffffffffffffffffffffffffffffff1681526020019081526020015f2054905081811015610be5578381836040517fe450d38c000000000000000000000000000000000000000000000000000000008152600401610bdc93929190611051565b60405180910390fd5b8181035f5f8673ffffffffffffffffffffffffffffffffffffffff1673ffffffffffffffffffffffffffffffffffffffff1681526020019081526020015f2081905550505b5f73ffffffffffffffffffffffffffffffffffffffff168273ffffffffffffffffffffffffffffffffffffffff1603610c71578060025f8282540392505081905550610cbb565b805f5f8473ffffffffffffffffffffffffffffffffffffffff1673ffffffffffffffffffffffffffffffffffffffff1681526020019081526020015f205f82825401925050819055505b8173ffffffffffffffffffffffffffffffffffffffff168373ffffffffffffffffffffffffffffffffffffffff167fddf252ad1be2c89b69c2b068fc378daa952ba7f163c4a11628f55a4df523b3ef83604051610d189190610ec6565b60405180910390a3505050565b5f81519050919050565b5f82825260208201905092915050565b8281835e5f83830152505050565b5f601f19601f8301169050919050565b5f610d6782610d25565b610d718185610d2f565b9350610d81818560208601610d3f565b610d8a81610d4d565b840191505092915050565b5f6020820190508181035f830152610dad8184610d5d565b905092915050565b5f5ffd5b5f73ffffffffffffffffffffffffffffffffffffffff82169050919050565b5f610de282610db9565b9050919050565b610df281610dd8565b8114610dfc575f5ffd5b50565b5f81359050610e0d81610de9565b92915050565b5f819050919050565b610e2581610e13565b8114610e2f575f5ffd5b50565b5f81359050610e4081610e1c565b92915050565b5f5f60408385031215610e5c57610e5b610db5565b5b5f610e6985828601610dff565b9250506020610e7a85828601610e32565b9150509250929050565b5f8115159050919050565b610e9881610e84565b82525050565b5f602082019050610eb15f830184610e8f565b92915050565b610ec081610e13565b82525050565b5f602082019050610ed95f830184610eb7565b92915050565b5f5f5f60608486031215610ef657610ef5610db5565b5b5f610f0386828701610dff565b9350506020610f1486828701610dff565b9250506040610f2586828701610e32565b9150509250925092565b5f60ff82169050919050565b610f4481610f2f565b82525050565b5f602082019050610f5d5f830184610f3b565b92915050565b5f60208284031215610f7857610f77610db5565b5b5f610f8584828501610dff565b91505092915050565b610f9781610dd8565b82525050565b5f602082019050610fb05f830184610f8e565b92915050565b5f5f60408385031215610fcc57610fcb610db5565b5b5f610fd985828601610dff565b9250506020610fea85828601610dff565b9150509250929050565b7f4e487b71000000000000000000000000000000000000000000000000000000005f52602260045260245ffd5b5f600282049050600182168061103857607f821691505b60208210810361104b5761104a610ff4565b5b50919050565b5f6060820190506110645f830186610f8e565b6110716020830185610eb7565b61107e6040830184610eb7565b949350505050565b7f4e487b71000000000000000000000000000000000000000000000000000000005f52601160045260245ffd5b5f6110bd82610e13565b91506110c883610e13565b92508282019050808211156110e0576110df611086565b5b9291505056fea2646970667358221220e461f058894b66bf3b54f06b1f5d26b0a8fb7f149bbd1a0960868e5b3b861fe164736f6c63430008210033608060405234801561000f575f5ffd5b50336040518060400160405280600881526020017f466f7267654e46540000000000000000000000000000000000000000000000008152506040518060400160405280600481526020017f464e465400000000000000000000000000000000000000000000000000000000815250815f908161008b9190610434565b50806001908161009b9190610434565b5050505f73ffffffffffffffffffffffffffffffffffffffff168173ffffffffffffffffffffffffffffffffffffffff160361010e575f6040517f1e4fbdf70000000000000000000000000000000000000000000000000000000081526004016101059190610542565b60405180910390fd5b61011d8161012360201b60201c565b5061055b565b5f60065f9054906101000a900473ffffffffffffffffffffffffffffffffffffffff1690508160065f6101000a81548173ffffffffffffffffffffffffffffffffffffffff021916908373ffffffffffffffffffffffffffffffffffffffff1602179055508173ffffffffffffffffffffffffffffffffffffffff168173ffffffffffffffffffffffffffffffffffffffff167f8be0079c531659141344cd1fd0a4f28419497f9722a3daafe3b4186f6b6457e060405160405180910390a35050565b5f81519050919050565b7f4e487b71000000000000000000000000000000000000000000000000000000005f52604160045260245ffd5b7f4e487b71000000000000000000000000000000000000000000000000000000005f52602260045260245ffd5b5f600282049050600182168061026157607f821691505b6020821081036102745761027361021d565b5b50919050565b5f819050815f5260205f209050919050565b5f6020601f8301049050919050565b5f82821b905092915050565b5f600883026102d67fffffffffffffffffffffffffffffffffffffffffffffffffffffffffffffffff8261029b565b6102e0868361029b565b95508019841693508086168417925050509392505050565b5f819050919050565b5f819050919050565b5f61032461031f61031a846102f8565b610301565b6102f8565b9050919050565b5f819050919050565b61033d8361030a565b6103516103498261032b565b8484546102a7565b825550505050565b5f5f905090565b610368610359565b610373818484610334565b505050565b5f5b828110156103995761038e5f828401610360565b60018101905061037a565b505050565b601f8211156103ec57828211156103eb576103b88161027a565b6103c18361028c565b6103ca8561028c565b60208610156103d7575f90505b8083016103e682840382610378565b505050505b5b505050565b5f82821c905092915050565b5f61040c5f19846008026103f1565b1980831691505092915050565b5f61042483836103fd565b9150826002028217905092915050565b61043d826101e6565b67ffffffffffffffff811115610456576104556101f0565b5b610460825461024a565b61046b82828561039e565b5f60209050601f83116001811461049c575f841561048a578287015190505b6104948582610419565b8655506104fb565b601f1984166104aa8661027a565b5f5b828110156104d1578489015182556001820191506020850194506020810190506104ac565b868310156104ee57848901516104ea601f8916826103fd565b8355505b6001600288020188555050505b505050505050565b5f73ffffffffffffffffffffffffffffffffffffffff82169050919050565b5f61052c82610503565b9050919050565b61053c81610522565b82525050565b5f6020820190506105555f830184610533565b92915050565b6120cf806105685f395ff3fe608060405234801561000f575f5ffd5b5060043610610109575f3560e01c806370a08231116100a0578063a22cb4651161006f578063a22cb465146102b5578063b88d4fde146102d1578063c87b56dd146102ed578063e985e9c51461031d578063f2fde38b1461034d57610109565b806370a082311461023f578063715018a61461026f5780638da5cb5b1461027957806395d89b411461029757610109565b806323b872dd116100dc57806323b872dd146101a757806342842e0e146101c35780636352211e146101df5780636a6278421461020f57610109565b806301ffc9a71461010d57806306fdde031461013d578063081812fc1461015b578063095ea7b31461018b575b5f5ffd5b61012760048036038101906101229190611906565b610369565b604051610134919061194b565b60405180910390f35b61014561044a565b60405161015291906119d4565b60405180910390f35b61017560048036038101906101709190611a27565b6104d9565b6040516101829190611a91565b60405180910390f35b6101a560048036038101906101a09190611ad4565b6104f4565b005b6101c160048036038101906101bc9190611b12565b61050a565b005b6101dd60048036038101906101d89190611b12565b610609565b005b6101f960048036038101906101f49190611a27565b610628565b6040516102069190611a91565b60405180910390f35b61022960048036038101906102249190611b62565b610639565b6040516102369190611b9c565b60405180910390f35b61025960048036038101906102549190611b62565b610672565b6040516102669190611b9c565b60405180910390f35b610277610728565b005b61028161073b565b60405161028e9190611a91565b60405180910390f35b61029f610763565b6040516102ac91906119d4565b60405180910390f35b6102cf60048036038101906102ca9190611bdf565b6107f3565b005b6102eb60048036038101906102e69190611d49565b610809565b005b61030760048036038101906103029190611a27565b61082e565b60405161031491906119d4565b60405180910390f35b61033760048036038101906103329190611dc9565b610894565b604051610344919061194b565b60405180910390f35b61036760048036038101906103629190611b62565b610922565b005b5f7f80ac58cd000000000000000000000000000000000000000000000000000000007bffffffffffffffffffffffffffffffffffffffffffffffffffffffff1916827bffffffffffffffffffffffffffffffffffffffffffffffffffffffff1916148061043357507f5b5e139f000000000000000000000000000000000000000000000000000000007bffffffffffffffffffffffffffffffffffffffffffffffffffffffff1916827bffffffffffffffffffffffffffffffffffffffffffffffffffffffff1916145b806104435750610442826109a6565b5b9050919050565b60605f805461045890611e34565b80601f016020809104026020016040519081016040528092919081815260200182805461048490611e34565b80156104cf5780601f106104a6576101008083540402835291602001916104cf565b820191905f5260205f20905b8154815290600101906020018083116104b257829003601f168201915b5050505050905090565b5f6104e382610a0f565b506104ed82610a95565b9050919050565b6105068282610501610ace565b610ad5565b5050565b5f73ffffffffffffffffffffffffffffffffffffffff168273ffffffffffffffffffffffffffffffffffffffff160361057a575f6040517f64a0ae920000000000000000000000000000000000000000000000000000000081526004016105719190611a91565b60405180910390fd5b5f61058d8383610588610ace565b610ae7565b90508373ffffffffffffffffffffffffffffffffffffffff168173ffffffffffffffffffffffffffffffffffffffff1614610603578382826040517f64283d7b0000000000000000000000000000000000000000000000000000000081526004016105fa93929190611e64565b60405180910390fd5b50505050565b61062383838360405180602001604052805f815250610809565b505050565b5f61063282610a0f565b9050919050565b5f610642610cf2565b5f600754905060075f81548092919061065a90611ec6565b91905055506106698382610d79565b80915050919050565b5f5f73ffffffffffffffffffffffffffffffffffffffff168273ffffffffffffffffffffffffffffffffffffffff16036106e3575f6040517f89c62b640000000000000000000000000000000000000000000000000000000081526004016106da9190611a91565b60405180910390fd5b60035f8373ffffffffffffffffffffffffffffffffffffffff1673ffffffffffffffffffffffffffffffffffffffff1681526020019081526020015f20549050919050565b610730610cf2565b6107395f610d96565b565b5f60065f9054906101000a900473ffffffffffffffffffffffffffffffffffffffff16905090565b60606001805461077290611e34565b80601f016020809104026020016040519081016040528092919081815260200182805461079e90611e34565b80156107e95780601f106107c0576101008083540402835291602001916107e9565b820191905f5260205f20905b8154815290600101906020018083116107cc57829003601f168201915b5050505050905090565b6108056107fe610ace565b8383610e59565b5050565b61081484848461050a565b61082861081f610ace565b85858585611032565b50505050565b606061083982610a0f565b505f6108436111de565b90505f8151116108615760405180602001604052805f81525061088c565b8061086b846111f4565b60405160200161087c929190611f47565b6040516020818303038152906040525b915050919050565b5f60055f8473ffffffffffffffffffffffffffffffffffffffff1673ffffffffffffffffffffffffffffffffffffffff1681526020019081526020015f205f8373ffffffffffffffffffffffffffffffffffffffff1673ffffffffffffffffffffffffffffffffffffffff1681526020019081526020015f205f9054906101000a900460ff16905092915050565b61092a610cf2565b5f73ffffffffffffffffffffffffffffffffffffffff168173ffffffffffffffffffffffffffffffffffffffff160361099a575f6040517f1e4fbdf70000000000000000000000000000000000000000000000000000000081526004016109919190611a91565b60405180910390fd5b6109a381610d96565b50565b5f7f01ffc9a7000000000000000000000000000000000000000000000000000000007bffffffffffffffffffffffffffffffffffffffffffffffffffffffff1916827bffffffffffffffffffffffffffffffffffffffffffffffffffffffff1916149050919050565b5f5f610a1a836112be565b90505f73ffffffffffffffffffffffffffffffffffffffff168173ffffffffffffffffffffffffffffffffffffffff1603610a8c57826040517f7e273289000000000000000000000000000000000000000000000000000000008152600401610a839190611b9c565b60405180910390fd5b80915050919050565b5f60045f8381526020019081526020015f205f9054906101000a900473ffffffffffffffffffffffffffffffffffffffff169050919050565b5f33905090565b610ae283838360016112f7565b505050565b5f5f610af2846112be565b90505f73ffffffffffffffffffffffffffffffffffffffff168373ffffffffffffffffffffffffffffffffffffffff1614610b3357610b328184866114b6565b5b5f73ffffffffffffffffffffffffffffffffffffffff168173ffffffffffffffffffffffffffffffffffffffff1614610bbe57610b725f855f5f6112f7565b600160035f8373ffffffffffffffffffffffffffffffffffffffff1673ffffffffffffffffffffffffffffffffffffffff1681526020019081526020015f205f82825403925050819055505b5f73ffffffffffffffffffffffffffffffffffffffff168573ffffffffffffffffffffffffffffffffffffffff1614610c3d57600160035f8773ffffffffffffffffffffffffffffffffffffffff1673ffffffffffffffffffffffffffffffffffffffff1681526020019081526020015f205f82825401925050819055505b8460025f8681526020019081526020015f205f6101000a81548173ffffffffffffffffffffffffffffffffffffffff021916908373ffffffffffffffffffffffffffffffffffffffff160217905550838573ffffffffffffffffffffffffffffffffffffffff168273ffffffffffffffffffffffffffffffffffffffff167fddf252ad1be2c89b69c2b068fc378daa952ba7f163c4a11628f55a4df523b3ef60405160405180910390a4809150509392505050565b610cfa610ace565b73ffffffffffffffffffffffffffffffffffffffff16610d1861073b565b73ffffffffffffffffffffffffffffffffffffffff1614610d7757610d3b610ace565b6040517f118cdaa7000000000000000000000000000000000000000000000000000000008152600401610d6e9190611a91565b60405180910390fd5b565b610d92828260405180602001604052805f815250611579565b5050565b5f60065f9054906101000a900473ffffffffffffffffffffffffffffffffffffffff1690508160065f6101000a81548173ffffffffffffffffffffffffffffffffffffffff021916908373ffffffffffffffffffffffffffffffffffffffff1602179055508173ffffffffffffffffffffffffffffffffffffffff168173ffffffffffffffffffffffffffffffffffffffff167f8be0079c531659141344cd1fd0a4f28419497f9722a3daafe3b4186f6b6457e060405160405180910390a35050565b5f73ffffffffffffffffffffffffffffffffffffffff168373ffffffffffffffffffffffffffffffffffffffff1603610ec9575f6040517fa9fbf51f000000000000000000000000000000000000000000000000000000008152600401610ec09190611a91565b60405180910390fd5b5f73ffffffffffffffffffffffffffffffffffffffff168273ffffffffffffffffffffffffffffffffffffffff1603610f3957816040517f5b08ba18000000000000000000000000000000000000000000000000000000008152600401610f309190611a91565b60405180910390fd5b8060055f8573ffffffffffffffffffffffffffffffffffffffff1673ffffffffffffffffffffffffffffffffffffffff1681526020019081526020015f205f8473ffffffffffffffffffffffffffffffffffffffff1673ffffffffffffffffffffffffffffffffffffffff1681526020019081526020015f205f6101000a81548160ff0219169083151502179055508173ffffffffffffffffffffffffffffffffffffffff168373ffffffffffffffffffffffffffffffffffffffff167f17307eab39ab6107e8899845ad3d59bd9653f200f220920489ca2b5937696c3183604051611025919061194b565b60405180910390a3505050565b5f8373ffffffffffffffffffffffffffffffffffffffff163b11156111d7578273ffffffffffffffffffffffffffffffffffffffff1663150b7a02868685856040518563ffffffff1660e01b81526004016110909493929190611fbc565b6020604051808303815f875af19250505080156110cb57506040513d601f19601f820116820180604052508101906110c8919061201a565b60015b61114c573d805f81146110f9576040519150601f19603f3d011682016040523d82523d5f602084013e6110fe565b606091505b505f81510361114457836040517f64a0ae9200000000000000000000000000000000000000000000000000000000815260040161113b9190611a91565b60405180910390fd5b805160208201fd5b63150b7a0260e01b7bffffffffffffffffffffffffffffffffffffffffffffffffffffffff1916817bffffffffffffffffffffffffffffffffffffffffffffffffffffffff1916146111d557836040517f64a0ae920000000000000000000000000000000000000000000000000000000081526004016111cc9190611a91565b60405180910390fd5b505b5050505050565b606060405180602001604052805f815250905090565b60605f60016112028461159c565b0190505f8167ffffffffffffffff8111156112205761121f611c25565b5b6040519080825280601f01601f1916602001820160405280156112525781602001600182028036833780820191505090505b5090505f82602083010190505b6001156112b3578080600190039150507f3031323334353637383961626364656600000000000000000000000000000000600a86061a8153600a85816112a8576112a7612045565b5b0494505f850361125f575b819350505050919050565b5f60025f8381526020019081526020015f205f9054906101000a900473ffffffffffffffffffffffffffffffffffffffff169050919050565b808061132f57505f73ffffffffffffffffffffffffffffffffffffffff168273ffffffffffffffffffffffffffffffffffffffff1614155b15611461575f61133e84610a0f565b90505f73ffffffffffffffffffffffffffffffffffffffff168373ffffffffffffffffffffffffffffffffffffffff16141580156113a857508273ffffffffffffffffffffffffffffffffffffffff168173ffffffffffffffffffffffffffffffffffffffff1614155b80156113bb57506113b98184610894565b155b156113fd57826040517fa9fbf51f0000000000000000000000000000000000000000000000000000000081526004016113f49190611a91565b60405180910390fd5b811561145f57838573ffffffffffffffffffffffffffffffffffffffff168273ffffffffffffffffffffffffffffffffffffffff167f8c5be1e5ebec7d5bd14f71427d1e84f3dd0314c0f7b2291e5b200ac8c7c3b92560405160405180910390a45b505b8360045f8581526020019081526020015f205f6101000a81548173ffffffffffffffffffffffffffffffffffffffff021916908373ffffffffffffffffffffffffffffffffffffffff16021790555050505050565b6114c18383836116ed565b611574575f73ffffffffffffffffffffffffffffffffffffffff168373ffffffffffffffffffffffffffffffffffffffff160361153557806040517f7e27328900000000000000000000000000000000000000000000000000000000815260040161152c9190611b9c565b60405180910390fd5b81816040517f177e802f00000000000000000000000000000000000000000000000000000000815260040161156b929190612072565b60405180910390fd5b505050565b61158383836117ad565b61159761158e610ace565b5f858585611032565b505050565b5f5f5f90507a184f03e93ff9f4daa797ed6e38ed64bf6a1f01000000000000000083106115f8577a184f03e93ff9f4daa797ed6e38ed64bf6a1f01000000000000000083816115ee576115ed612045565b5b0492506040810190505b6d04ee2d6d415b85acef81000000008310611635576d04ee2d6d415b85acef8100000000838161162b5761162a612045565b5b0492506020810190505b662386f26fc10000831061166457662386f26fc10000838161165a57611659612045565b5b0492506010810190505b6305f5e100831061168d576305f5e100838161168357611682612045565b5b0492506008810190505b61271083106116b25761271083816116a8576116a7612045565b5b0492506004810190505b606483106116d557606483816116cb576116ca612045565b5b0492506002810190505b600a83106116e4576001810190505b80915050919050565b5f5f73ffffffffffffffffffffffffffffffffffffffff168373ffffffffffffffffffffffffffffffffffffffff16141580156117a457508273ffffffffffffffffffffffffffffffffffffffff168473ffffffffffffffffffffffffffffffffffffffff16148061176557506117648484610894565b5b806117a357508273ffffffffffffffffffffffffffffffffffffffff1661178b83610a95565b73ffffffffffffffffffffffffffffffffffffffff16145b5b90509392505050565b5f73ffffffffffffffffffffffffffffffffffffffff168273ffffffffffffffffffffffffffffffffffffffff160361181d575f6040517f64a0ae920000000000000000000000000000000000000000000000000000000081526004016118149190611a91565b60405180910390fd5b5f61182983835f610ae7565b90505f73ffffffffffffffffffffffffffffffffffffffff168173ffffffffffffffffffffffffffffffffffffffff161461189b575f6040517f73c6ac6e0000000000000000000000000000000000000000000000000000000081526004016118929190611a91565b60405180910390fd5b505050565b5f604051905090565b5f5ffd5b5f5ffd5b5f7fffffffff0000000000000000000000000000000000000000000000000000000082169050919050565b6118e5816118b1565b81146118ef575f5ffd5b50565b5f81359050611900816118dc565b92915050565b5f6020828403121561191b5761191a6118a9565b5b5f611928848285016118f2565b91505092915050565b5f8115159050919050565b61194581611931565b82525050565b5f60208201905061195e5f83018461193c565b92915050565b5f81519050919050565b5f82825260208201905092915050565b8281835e5f83830152505050565b5f601f19601f8301169050919050565b5f6119a682611964565b6119b0818561196e565b93506119c081856020860161197e565b6119c98161198c565b840191505092915050565b5f6020820190508181035f8301526119ec818461199c565b905092915050565b5f819050919050565b611a06816119f4565b8114611a10575f5ffd5b50565b5f81359050611a21816119fd565b92915050565b5f60208284031215611a3c57611a3b6118a9565b5b5f611a4984828501611a13565b91505092915050565b5f73ffffffffffffffffffffffffffffffffffffffff82169050919050565b5f611a7b82611a52565b9050919050565b611a8b81611a71565b82525050565b5f602082019050611aa45f830184611a82565b92915050565b611ab381611a71565b8114611abd575f5ffd5b50565b5f81359050611ace81611aaa565b92915050565b5f5f60408385031215611aea57611ae96118a9565b5b5f611af785828601611ac0565b9250506020611b0885828601611a13565b9150509250929050565b5f5f5f60608486031215611b2957611b286118a9565b5b5f611b3686828701611ac0565b9350506020611b4786828701611ac0565b9250506040611b5886828701611a13565b9150509250925092565b5f60208284031215611b7757611b766118a9565b5b5f611b8484828501611ac0565b91505092915050565b611b96816119f4565b82525050565b5f602082019050611baf5f830184611b8d565b92915050565b611bbe81611931565b8114611bc8575f5ffd5b50565b5f81359050611bd981611bb5565b92915050565b5f5f60408385031215611bf557611bf46118a9565b5b5f611c0285828601611ac0565b9250506020611c1385828601611bcb565b9150509250929050565b5f5ffd5b5f5ffd5b7f4e487b71000000000000000000000000000000000000000000000000000000005f52604160045260245ffd5b611c5b8261198c565b810181811067ffffffffffffffff82111715611c7a57611c79611c25565b5b80604052505050565b5f611c8c6118a0565b9050611c988282611c52565b919050565b5f67ffffffffffffffff821115611cb757611cb6611c25565b5b611cc08261198c565b9050602081019050919050565b828183375f83830152505050565b5f611ced611ce884611c9d565b611c83565b905082815260208101848484011115611d0957611d08611c21565b5b611d14848285611ccd565b509392505050565b5f82601f830112611d3057611d2f611c1d565b5b8135611d40848260208601611cdb565b91505092915050565b5f5f5f5f60808587031215611d6157611d606118a9565b5b5f611d6e87828801611ac0565b9450506020611d7f87828801611ac0565b9350506040611d9087828801611a13565b925050606085013567ffffffffffffffff811115611db157611db06118ad565b5b611dbd87828801611d1c565b91505092959194509250565b5f5f60408385031215611ddf57611dde6118a9565b5b5f611dec85828601611ac0565b9250506020611dfd85828601611ac0565b9150509250929050565b7f4e487b71000000000000000000000000000000000000000000000000000000005f52602260045260245ffd5b5f6002820490506001821680611e4b57607f821691505b602082108103611e5e57611e5d611e07565b5b50919050565b5f606082019050611e775f830186611a82565b611e846020830185611b8d565b611e916040830184611a82565b949350505050565b7f4e487b71000000000000000000000000000000000000000000000000000000005f52601160045260245ffd5b5f611ed0826119f4565b91507fffffffffffffffffffffffffffffffffffffffffffffffffffffffffffffffff8203611f0257611f01611e99565b5b600182019050919050565b5f81905092915050565b5f611f2182611964565b611f2b8185611f0d565b9350611f3b81856020860161197e565b80840191505092915050565b5f611f528285611f17565b9150611f5e8284611f17565b91508190509392505050565b5f81519050919050565b5f82825260208201905092915050565b5f611f8e82611f6a565b611f988185611f74565b9350611fa881856020860161197e565b611fb18161198c565b840191505092915050565b5f608082019050611fcf5f830187611a82565b611fdc6020830186611a82565b611fe96040830185611b8d565b8181036060830152611ffb8184611f84565b905095945050505050565b5f81519050612014816118dc565b92915050565b5f6020828403121561202f5761202e6118a9565b5b5f61203c84828501612006565b91505092915050565b7f4e487b71000000000000000000000000000000000000000000000000000000005f52601260045260245ffd5b5f6040820190506120855f830185611a82565b6120926020830184611b8d565b939250505056fea2646970667358221220eb312eb21bfa060955086d17ed7019a77057ded1828e63efe7221b5ced676a9964736f6c63430008210033","linkReferences":{}},"methodIdentifiers":{"contribute()":"d7bb99ba","contributions(address)":"42e94c90","deadline()":"29dcb0cf","forgeNFT()":"25cb9e51","forgeToken()":"bb9ed1b1","goal()":"40193883","owner()":"8da5cb5b","totalRaised()":"c5c4744c","withdraw()":"3ccfd60b"},"id":36}