{"abi":[{"type":"constructor","inputs":[],"stateMutability":"nonpayable"},{"type":"function","name":"FEE_DENOMINATOR","inputs":[],"outputs":[{"name":"","type":"uint256","internalType":"uint256"}],"stateMutability":"view"},{"type":"function","name":"MAX_DURATION","inputs":[],"outputs":[{"name":"","type":"uint256","internalType":"uint256"}],"stateMutability":"view"},{"type":"function","name":"MIN_DURATION","inputs":[],"outputs":[{"name":"","type":"uint256","internalType":"uint256"}],"stateMutability":"view"},{"type":"function","name":"PLATFORM_FEE","inputs":[],"outputs":[{"name":"","type":"uint256","internalType":"uint256"}],"stateMutability":"view"},{"type":"function","name":"TOKENS_PER_ETH","inputs":[],"outputs":[{"name":"","type":"uint256","internalType":"uint256"}],"stateMutability":"view"},{"type":"function","name":"campaignCount","inputs":[],"outputs":[{"name":"","type":"uint256","internalType":"uint256"}],"stateMutability":"view"},{"type":"function","name":"campaigns","inputs":[{"name":"","type":"uint256","internalType":"uint256"}],"outputs":[{"name":"id","type":"uint256","internalType":"uint256"},{"name":"name","type":"string","internalType":"string"},{"name":"description","type":"string","internalType":"string"},{"name":"creator","type":"address","internalType":"address payable"},{"name":"goal","type":"uint256","internalType":"uint256"},{"name":"raisedAmount","type":"uint256","internalType":"uint256"},{"name":"deadline","type":"uint256","internalType":"uint256"},{"name":"minContribution","type":"uint256","internalType":"uint256"},{"name":"noOfContributors","type":"uint256","internalType":"uint256"},{"name":"fundingType","type":"uint8","internalType":"enum ForgeRaise.FundingType"},{"name":"state","type":"uint8","internalType":"enum ForgeRaise.CampaignState"},{"name":"rewardToken","type":"address","internalType":"address"},{"name":"withdrawn","type":"bool","internalType":"bool"}],"stateMutability":"view"},{"type":"function","name":"contribute","inputs":[{"name":"_campaignId","type":"uint256","internalType":"uint256"}],"outputs":[],"stateMutability":"payable"},{"type":"function","name":"contributions","inputs":[{"name":"","type":"uint256","internalType":"uint256"},{"name":"","type":"address","internalType":"address"}],"outputs":[{"name":"","type":"uint256","internalType":"uint256"}],"stateMutability":"view"},{"type":"function","name":"createCampaign","inputs":[{"name":"_name","type":"string","internalType":"string"},{"name":"_description","type":"string","internalType":"string"},{"name":"_goal","type":"uint256","internalType":"uint256"},{"name":"_deadline","type":"uint256","internalType":"uint256"},{"name":"_minContribution","type":"uint256","internalType":"uint256"},{"name":"_fundingType","type":"uint8","internalType":"enum ForgeRaise.FundingType"},{"name":"_rewardToken","type":"address","internalType":"address"}],"outputs":[],"stateMutability":"nonpayable"},{"type":"function","name":"feeBalance","inputs":[],"outputs":[{"name":"","type":"uint256","internalType":"uint256"}],"stateMutability":"view"},{"type":"function","name":"forgeNFT","inputs":[],"outputs":[{"name":"","type":"address","internalType":"contract ForgeNFT"}],"stateMutability":"view"},{"type":"function","name":"getCampaign","inputs":[{"name":"_campaignId","type":"uint256","internalType":"uint256"}],"outputs":[{"name":"","type":"tuple","internalType":"struct ForgeRaise.Campaign","components":[{"name":"id","type":"uint256","internalType":"uint256"},{"name":"name","type":"string","internalType":"string"},{"name":"description","type":"string","internalType":"string"},{"name":"creator","type":"address","internalType":"address payable"},{"name":"goal","type":"uint256","internalType":"uint256"},{"name":"raisedAmount","type":"uint256","internalType":"uint256"},{"name":"deadline","type":"uint256","internalType":"uint256"},{"name":"minContribution","type":"uint256","internalType":"uint256"},{"name":"noOfContributors","type":"uint256","internalType":"uint256"},{"name":"fundingType","type":"uint8","internalType":"enum ForgeRaise.FundingType"},{"name":"state","type":"uint8","internalType":"enum ForgeRaise.CampaignState"},{"name":"rewardToken","type":"address","internalType":"address"},{"name":"withdrawn","type":"bool","internalType":"bool"}]}],"stateMutability":"view"},{"type":"function","name":"getContractBalance","inputs":[],"outputs":[{"name":"","type":"uint256","internalType":"uint256"}],"stateMutability":"view"},{"type":"function","name":"getContribution","inputs":[{"name":"_campaignId","type":"uint256","internalType":"uint256"},{"name":"_contributor","type":"address","internalType":"address"}],"outputs":[{"name":"","type":"uint256","internalType":"uint256"}],"stateMutability":"view"},{"type":"function","name":"isVerified","inputs":[{"name":"_creator","type":"address","internalType":"address"}],"outputs":[{"name":"","type":"bool","internalType":"bool"}],"stateMutability":"view"},{"type":"function","name":"owner","inputs":[],"outputs":[{"name":"","type":"address","internalType":"address"}],"stateMutability":"view"},{"type":"function","name":"refund","inputs":[{"name":"_campaignId","type":"uint256","internalType":"uint256"}],"outputs":[],"stateMutability":"nonpayable"},{"type":"function","name":"refunded","inputs":[{"name":"","type":"uint256","internalType":"uint256"},{"name":"","type":"address","internalType":"address"}],"outputs":[{"name":"","type":"bool","internalType":"bool"}],"stateMutability":"view"},{"type":"function","name":"renounceOwnership","inputs":[],"outputs":[],"stateMutability":"nonpayable"},{"type":"function","name":"revokeCreator","inputs":[{"name":"_creator","type":"address","internalType":"address"}],"outputs":[],"stateMutability":"nonpayable"},{"type":"function","name":"transferOwnership","inputs":[{"name":"newOwner","type":"address","internalType":"address"}],"outputs":[],"stateMutability":"nonpayable"},{"type":"function","name":"verifiedCreators","inputs":[{"name":"","type":"address","internalType":"address"}],"outputs":[{"name":"","type":"bool","internalType":"bool"}],"stateMutability":"view"},{"type":"function","name":"verifyCreator","inputs":[{"name":"_creator","type":"address","internalType":"address"}],"outputs":[],"stateMutability":"nonpayable"},{"type":"function","name":"withdraw","inputs":[{"name":"_campaignId","type":"uint256","internalType":"uint256"}],"outputs":[],"stateMutability":"nonpayable"},{"type":"function","name":"withdrawFees","inputs":[],"outputs":[],"stateMutability":"nonpayable"},{"type":"event","name":"BackerRefunded","inputs":[{"name":"campaignId","type":"uint256","indexed":true,"internalType":"uint256"},{"name":"backer","type":"address","indexed":true,"internalType":"address"},{"name":"amount","type":"uint256","indexed":false,"internalType":"uint256"}],"anonymous":false},{"type":"event","name":"CampaignCreated","inputs":[{"name":"campaignId","type":"uint256","indexed":true,"internalType":"uint256"},{"name":"creator","type":"address","indexed":true,"internalType":"address"},{"name":"goal","type":"uint256","indexed":false,"internalType":"uint256"},{"name":"deadline","type":"uint256","indexed":false,"internalType":"uint256"},{"name":"fundingType","type":"uint8","indexed":false,"internalType":"enum ForgeRaise.FundingType"}],"anonymous":false},{"type":"event","name":"CampaignFailed","inputs":[{"name":"campaignId","type":"uint256","indexed":true,"internalType":"uint256"}],"anonymous":false},{"type":"event","name":"ContributionMade","inputs":[{"name":"campaignId","type":"uint256","indexed":true,"internalType":"uint256"},{"name":"contributor","type":"address","indexed":true,"internalType":"address"},{"name":"amount","type":"uint256","indexed":false,"internalType":"uint256"}],"anonymous":false},{"type":"event","name":"CreatorRevoked","inputs":[{"name":"creator","type":"address","indexed":true,"internalType":"address"}],"anonymous":false},{"type":"event","name":"CreatorVerified","inputs":[{"name":"creator","type":"address","indexed":true,"internalType":"address"}],"anonymous":false},{"type":"event","name":"CreatorWithdrew","inputs":[{"name":"campaignId","type":"uint256","indexed":true,"internalType":"uint256"},{"name":"creator","type":"address","indexed":true,"internalType":"address"},{"name":"amount","type":"uint256","indexed":false,"internalType":"uint256"}],"anonymous":false},{"type":"event","name":"FeesWithdrawn","inputs":[{"name":"owner","type":"address","indexed":true,"internalType":"address"},{"name":"amount","type":"uint256","indexed":false,"internalType":"uint256"}],"anonymous":false},{"type":"event","name":"GoalReached","inputs":[{"name":"campaignId","type":"uint256","indexed":true,"internalType":"uint256"},{"name":"creator","type":"address","indexed":true,"internalType":"address"},{"name":"totalRaised","type":"uint256","indexed":false,"internalType":"uint256"}],"anonymous":false},{"type":"event","name":"OwnershipTransferred","inputs":[{"name":"previousOwner","type":"address","indexed":true,"internalType":"address"},{"name":"newOwner","type":"address","indexed":true,"internalType":"address"}],"anonymous":false},{"type":"error","name":"AlreadyRefunded","inputs":[{"name":"campaignId","type":"uint256","internalType":"uint256"},{"name":"caller","type":"address","internalType":"address"}]},{"type":"error","name":"AlreadyWithdrawn","inputs":[{"name":"campaignId","type":"uint256","internalType":"uint256"}]},{"type":"error","name":"BelowMinContribution","inputs":[{"name":"amountSent","type":"uint256","internalType":"uint256"},{"name":"minContribution","type":"uint256","internalType":"uint256"}]},{"type":"error","name":"CampaignNotActive","inputs":[{"name":"campaignId","type":"uint256","internalType":"uint256"}]},{"type":"error","name":"CampaignNotFound","inputs":[{"name":"campaignId","type":"uint256","internalType":"uint256"}]},{"type":"error","name":"CreatorCannotContribute","inputs":[{"name":"campaignId","type":"uint256","internalType":"uint256"},{"name":"caller","type":"address","internalType":"address"}]},{"type":"error","name":"DeadlineNotPassed","inputs":[{"name":"campaignId","type":"uint256","internalType":"uint256"}]},{"type":"error","name":"DeadlinePassed","inputs":[{"name":"campaignId","type":"uint256","internalType":"uint256"}]},{"type":"error","name":"GoalAlreadyReached","inputs":[{"name":"campaignId","type":"uint256","internalType":"uint256"}]},{"type":"error","name":"GoalNotReached","inputs":[{"name":"amountRaised","type":"uint256","internalType":"uint256"},{"name":"goal","type":"uint256","internalType":"uint256"}]},{"type":"error","name":"InvalidMinContribution","inputs":[{"name":"minContribution","type":"uint256","internalType":"uint256"},{"name":"goal","type":"uint256","internalType":"uint256"}]},{"type":"error","name":"InvalidTokenAddress","inputs":[]},{"type":"error","name":"NotAContributor","inputs":[{"name":"campaignId","type":"uint256","internalType":"uint256"},{"name":"caller","type":"address","internalType":"address"}]},{"type":"error","name":"NotCreator","inputs":[{"name":"campaignId","type":"uint256","internalType":"uint256"},{"name":"caller","type":"address","internalType":"address"}]},{"type":"error","name":"NotOwner","inputs":[{"name":"caller","type":"address","internalType":"address"}]},{"type":"error","name":"NotVerifiedCreator","inputs":[{"name":"caller","type":"address","internalType":"address"}]},{"type":"error","name":"OwnableInvalidOwner","inputs":[{"name":"owner","type":"address","internalType":"address"}]},{"type":"error","name":"OwnableUnauthorizedAccount","inputs":[{"name":"account","type":"address","internalType":"address"}]},{"type":"error","name":"ReentrancyGuardReentrantCall","inputs":[]},{"type":"error","name":"TransferFailed","inputs":[]},{"type":"error","name":"WrongFundingType","inputs":[{"name":"campaignId","type":"uint256","internalType":"uint256"},{"name":"fundingType","type":"uint8","internalType":"enum ForgeRaise.FundingType"}]}],"bytecode":{"object":"0x608060405234610027576100116100e4565b61001961002c565b6135f56103d882396135f590f35b610032565b60405190565b5f80fd5b634e487b7160e01b5f52604160045260245ffd5b5f0190565b61005761002c565b3d5f823e3d90fd5b5f1b90565b9061007560018060a01b039161005f565b9181191691161790565b60018060a01b031690565b90565b6100a161009c6100a69261007f565b61008a565b61007f565b90565b6100b29061008d565b90565b6100be906100a9565b90565b90565b906100d96100d46100e0926100b5565b6100c1565b8254610064565b9055565b6100ed33610197565b6100f561002c565b6126bc810181811060018060401b038211176101395761011d82916126bc6139cd843961004a565b03905ff08015610134576101329060036100c4565b565b61004f565b610036565b90565b61015561015061015a9261013e565b61008a565b61007f565b90565b61016690610141565b90565b6101729061007f565b90565b61017e90610169565b9052565b9190610195905f60208501940190610175565b565b61019f6101f1565b806101ba6101b46101af5f61015d565b610169565b91610169565b146101ca576101c89061030f565b565b6101ed6101d65f61015d565b5f918291631e4fbdf760e01b835260048301610182565b0390fd5b6101f961027f565b565b90565b90565b61021561021061021a926101fb565b61008a565b6101fe565b90565b6102276001610201565b90565b906102365f199161005f565b9181191691161790565b61025461024f610259926101fe565b61008a565b6101fe565b90565b90565b9061027461026f61027b92610240565b61025c565b825461022a565b9055565b6102a161028a61021d565b5f61029b6102966103c0565b6103d4565b0161025f565b565b5f1c90565b60018060a01b031690565b6102bf6102c4916102a3565b6102a8565b90565b6102d190546102b3565b90565b6102dd9061008d565b90565b6102e9906102d4565b90565b90565b906103046102ff61030b926102e0565b6102ec565b8254610064565b9055565b6103185f6102c7565b610322825f6102ef565b906103566103507f8be0079c531659141344cd1fd0a4f28419497f9722a3daafe3b4186f6b6457e0936102e0565b916102e0565b9161035f61002c565b806103698161004a565b0390a3565b5f90565b90565b90565b61038c61038761039192610372565b61005f565b610375565b90565b6103bd7f9b779b17422d0df92223018b32b4d1fa46e071723d6817e2486d003becc55f00610378565b90565b6103c861036e565b506103d1610394565b90565b9056fe60806040526004361015610013575b6112ee565b61001d5f356101bc565b8063141961bc146101b757806325cb9e51146101b2578063278ecde1146101ad5780632e1a7d4d146101a857806334fbc9a1146101a35780633d891f591461019e578063476343ee146101995780634f1ff459146101945780635598f8cc1461018f57806360b71d4e1461018a5780636f9fb98a14610185578063715018a6146101805780637274e30d1461017b5780638da5cb5b1461017657806398dd1b65146101715780639cebe9d51461016c578063add150bc14610167578063b1724b4614610162578063b6a6d1771461015d578063b9209e3314610158578063bc6e660414610153578063c0e69af61461014e578063c1cbbca714610149578063d73792a914610144578063e081dbf91461013f5763f2fde38b0361000e576112bb565b611285565b611250565b6111ef565b6111bc565b611187565b61111a565b6110e5565b611077565b611008565b610fb2565b610e71565b610e1e565b610dd4565b610d92565b610d5d565b610d28565b610ce4565b610b17565b610a5c565b610a26565b610922565b6108a2565b61086f565b610835565b610747565b60e01c90565b60405190565b5f80fd5b5f80fd5b5f80fd5b90565b6101e0816101d4565b036101e757565b5f80fd5b905035906101f8826101d7565b565b9060208282031261021357610210915f016101eb565b90565b6101cc565b90565b61022f61022a610234926101d4565b610218565b6101d4565b90565b906102419061021b565b5f5260205260405f2090565b5f1c90565b90565b6102616102669161024d565b610252565b90565b6102739054610255565b90565b634e487b7160e01b5f52602260045260245ffd5b90600160028304921680156102aa575b60208310146102a557565b610276565b91607f169161029a565b60209181520190565b5f5260205f2090565b905f92918054906102e06102d98361028a565b80946102b4565b916001811690815f1461033757506001146102fb575b505050565b61030891929394506102bd565b915f925b81841061031f57505001905f80806102f6565b6001816020929593955484860152019101929061030c565b92949550505060ff19168252151560200201905f80806102f6565b9061035c916102c6565b90565b601f801991011690565b634e487b7160e01b5f52604160045260245ffd5b906103879061035f565b810190811067ffffffffffffffff8211176103a157604052565b610369565b906103c66103bf926103b66101c2565b93848092610352565b038361037d565b565b60018060a01b031690565b6103df6103e49161024d565b6103c8565b90565b6103f190546103d3565b90565b60ff1690565b61040661040b9161024d565b6103f4565b90565b61041890546103fa565b90565b60081c90565b60ff1690565b6104336104389161041b565b610421565b90565b6104459054610427565b90565b60101c90565b60018060a01b031690565b61046561046a91610448565b61044e565b90565b6104779054610459565b90565b60b01c90565b60ff1690565b6104926104979161047a565b610480565b90565b6104a49054610486565b90565b6104b2906004610237565b6104bd5f8201610269565b916104ca600183016103a6565b916104d7600282016103a6565b916104e4600383016103e7565b916104f160048201610269565b916104fe60058301610269565b9161050b60068201610269565b9161051860078301610269565b9161052560088201610269565b916105326009830161040e565b9161053f6009820161043b565b91610557600961055081850161046d565b930161049a565b90565b610563906101d4565b9052565b5190565b60209181520190565b90825f9392825e0152565b61059e6105a76020936105ac9361059581610567565b9384809361056b565b95869101610574565b61035f565b0190565b60018060a01b031690565b6105c4906105b0565b90565b6105d0906105bb565b9052565b634e487b7160e01b5f52602160045260245ffd5b600311156105f257565b6105d4565b90610601826105e8565b565b61060c906105f7565b90565b61061890610603565b9052565b6003111561062657565b6105d4565b906106358261061c565b565b6106409061062b565b90565b61064c90610637565b9052565b610659906105b0565b90565b61066590610650565b9052565b151590565b61067790610669565b9052565b9a9896949291909d9c9b999795939d6101a08c01905f8d0161069c9161055a565b8b810360208d01526106ad9161057f565b8a810360408c01526106be9161057f565b9b60608a016106cc916105c7565b608089016106d99161055a565b60a088016106e69161055a565b60c087016106f39161055a565b60e086016107009161055a565b610100850161070e9161055a565b610120840161071c9161060f565b610140830161072a91610643565b61016082016107389161065c565b610180016107459161066e565b565b346107875761078361076261075d3660046101fa565b6104a7565b9961077a9d9b9d9991999892989793979694966101c2565b9d8e9d8e61067b565b0390f35b6101c8565b5f91031261079657565b6101cc565b1c90565b60018060a01b031690565b6107ba9060086107bf930261079b565b61079f565b90565b906107cd91546107aa565b90565b6107dc60035f906107c2565b90565b6107f36107ee6107f8926105b0565b610218565b6105b0565b90565b610804906107df565b90565b610810906107fb565b90565b61081c90610807565b9052565b9190610833905f60208501940190610813565b565b346108655761084536600461078c565b6108616108506107d0565b6108586101c2565b91829182610820565b0390f35b6101c8565b5f0190565b3461089d576108876108823660046101fa565b611a3f565b61088f6101c2565b806108998161086a565b0390f35b6101c8565b346108d0576108ba6108b53660046101fa565b611db8565b6108c26101c2565b806108cc8161086a565b0390f35b6101c8565b90565b6108ec6108e76108f1926108d5565b610218565b6101d4565b90565b6108ff61012c6108d8565b90565b61090a6108f4565b90565b9190610920905f6020850194019061055a565b565b346109525761093236600461078c565b61094e61093d610902565b6109456101c2565b9182918261090d565b0390f35b6101c8565b61096081610650565b0361096757565b5f80fd5b9050359061097882610957565b565b91906040838203126109a2578061099661099f925f86016101eb565b9360200161096b565b90565b6101cc565b906109b19061021b565b5f5260205260405f2090565b6109c6906107fb565b90565b906109d3906109bd565b5f5260205260405f2090565b6109ef9060086109f4930261079b565b610252565b90565b90610a0291546109df565b90565b610a1e610a2392610a196005935f946109a7565b6109c9565b6109f7565b90565b34610a5757610a53610a42610a3c36600461097a565b90610a05565b610a4a6101c2565b9182918261090d565b0390f35b6101c8565b34610a8a57610a6c36600461078c565b610a74611eae565b610a7c6101c2565b80610a868161086a565b0390f35b6101c8565b90610a999061021b565b5f5260205260405f2090565b90610aaf906109bd565b5f5260205260405f2090565b610acb906008610ad0930261079b565b610480565b90565b90610ade9154610abb565b90565b610afa610aff92610af56006935f94610a8f565b610aa5565b610ad3565b90565b9190610b15905f6020850194019061066e565b565b34610b4857610b44610b33610b2d36600461097a565b90610ae1565b610b3b6101c2565b91829182610b02565b0390f35b6101c8565b610b56906101d4565b9052565b610b79610b82602093610b8793610b7081610567565b938480936102b4565b95869101610574565b61035f565b0190565b610b94906105bb565b9052565b610ba190610603565b9052565b610bae90610637565b9052565b610bbb90610650565b9052565b610bc890610669565b9052565b90610cc99061018080610c14610c026101a08501610bf05f8901515f880190610b4d565b60208801518682036020880152610b5a565b60408701518582036040870152610b5a565b94610c2760608201516060860190610b8b565b610c3960808201516080860190610b4d565b610c4b60a082015160a0860190610b4d565b610c5d60c082015160c0860190610b4d565b610c6f60e082015160e0860190610b4d565b610c83610100820151610100860190610b4d565b610c97610120820151610120860190610b98565b610cab610140820151610140860190610ba5565b610cbf610160820151610160860190610bb2565b0151910190610bbf565b90565b610ce19160208201915f818403910152610bcc565b90565b34610d1457610d10610cff610cfa3660046101fa565b611f8b565b610d076101c2565b91829182610ccc565b0390f35b6101c8565b610d2560025f906109f7565b90565b34610d5857610d3836600461078c565b610d54610d43610d19565b610d4b6101c2565b9182918261090d565b0390f35b6101c8565b34610d8d57610d6d36600461078c565b610d89610d78612006565b610d806101c2565b9182918261090d565b0390f35b6101c8565b34610dc057610da236600461078c565b610daa612069565b610db26101c2565b80610dbc8161086a565b0390f35b6101c8565b610dd160015f906109f7565b90565b34610e0457610de436600461078c565b610e00610def610dc5565b610df76101c2565b9182918261090d565b0390f35b6101c8565b9190610e1c905f6020850194019061065c565b565b34610e4e57610e2e36600461078c565b610e4a610e39612098565b610e416101c2565b91829182610e09565b0390f35b6101c8565b90602082820312610e6c57610e69915f0161096b565b90565b6101cc565b34610e9f57610e89610e84366004610e53565b612118565b610e916101c2565b80610e9b8161086a565b0390f35b6101c8565b5f80fd5b5f80fd5b5f80fd5b909182601f83011215610eea5781359167ffffffffffffffff8311610ee5576020019260018302840111610ee057565b610eac565b610ea8565b610ea4565b60031115610ef957565b5f80fd5b90503590610f0a82610eef565b565b919060e083820312610fad575f83013567ffffffffffffffff8111610fa85781610f37918501610eb0565b929093602081013567ffffffffffffffff8111610fa35783610f5a918301610eb0565b929093610f6a81604085016101eb565b92610f7882606083016101eb565b92610fa0610f8984608085016101eb565b93610f978160a08601610efd565b9360c00161096b565b90565b6101d0565b6101d0565b6101cc565b34610fea57610fd4610fc5366004610f0c565b97969096959195949294612a1a565b610fdc6101c2565b80610fe68161086a565b0390f35b6101c8565b611005906110006007915f92610aa5565b610ad3565b90565b346110385761103461102361101e366004610e53565b610fef565b61102b6101c2565b91829182610b02565b0390f35b6101c8565b90565b61105461104f6110599261103d565b610218565b6101d4565b90565b6110696301e13380611040565b90565b61107461105c565b90565b346110a75761108736600461078c565b6110a361109261106c565b61109a6101c2565b9182918261090d565b0390f35b6101c8565b90565b6110c36110be6110c8926110ac565b610218565b6101d4565b90565b6110d762278d006110af565b90565b6110e26110cb565b90565b34611115576110f536600461078c565b6111116111006110da565b6111086101c2565b9182918261090d565b0390f35b6101c8565b3461114a57611146611135611130366004610e53565b612a31565b61113d6101c2565b91829182610b02565b0390f35b6101c8565b90565b61116661116161116b9261114f565b610218565b6101d4565b90565b6111796103e8611152565b90565b61118461116e565b90565b346111b75761119736600461078c565b6111b36111a261117c565b6111aa6101c2565b9182918261090d565b0390f35b6101c8565b346111ea576111d46111cf366004610e53565b612aba565b6111dc6101c2565b806111e68161086a565b0390f35b6101c8565b6112026111fd3660046101fa565b612eaf565b61120a6101c2565b806112148161086a565b0390f35b90565b61122f61122a61123492611218565b610218565b6101d4565b90565b61124261271061121b565b90565b61124d611237565b90565b346112805761126036600461078c565b61127c61126b611245565b6112736101c2565b9182918261090d565b0390f35b6101c8565b346112b6576112b26112a161129b36600461097a565b90612eba565b6112a96101c2565b9182918261090d565b0390f35b6101c8565b346112e9576112d36112ce366004610e53565b612f47565b6112db6101c2565b806112e58161086a565b0390f35b6101c8565b5f80fd5b611303906112fe612f7e565b611707565b61130b612fd6565b565b90611317906101d4565b9052565b52565b90611328906105bb565b9052565b90611336906105f7565b9052565b906113449061062b565b9052565b9061135290610650565b9052565b9061136090610669565b9052565b906113776113706101c2565b928361037d565b565b6113846101a0611364565b90565b906114c86114be6009611398611379565b946113af6113a75f8301610269565b5f880161130d565b6113c76113be600183016103a6565b6020880161131b565b6113df6113d6600283016103a6565b6040880161131b565b6113f76113ee600383016103e7565b6060880161131e565b61140f61140660048301610269565b6080880161130d565b61142761141e60058301610269565b60a0880161130d565b61143f61143660068301610269565b60c0880161130d565b61145761144e60078301610269565b60e0880161130d565b61147061146660088301610269565b610100880161130d565b61148861147e83830161040e565b610120880161132c565b6114a061149683830161043b565b610140880161133a565b6114b86114ae83830161046d565b6101608801611348565b0161049a565b6101808401611356565b565b6114d390611387565b90565b6114e090516101d4565b90565b90565b6114fa6114f56114ff926114e3565b610218565b6101d4565b90565b61150c905161062b565b90565b91602061153092949361152960408201965f83019061055a565b019061065c565b565b61153e6115439161024d565b610480565b90565b6115509054611532565b90565b60081b90565b9061156661ff0091611553565b9181191691161790565b6115799061062b565b90565b90565b9061159461158f61159b92611570565b61157c565b8254611559565b9055565b5f1b90565b906115b05f199161159f565b9181191691161790565b90565b906115d26115cd6115d99261021b565b6115ba565b82546115a4565b9055565b906115e960ff9161159f565b9181191691161790565b6115fc90610669565b90565b90565b9061161761161261161e926115f3565b6115ff565b82546115dd565b9055565b634e487b7160e01b5f52601160045260245ffd5b61164561164b919392936101d4565b926101d4565b820391821161165657565b611622565b611664906107df565b90565b6116709061165b565b90565b61167c906107fb565b90565b905090565b61168f5f809261167f565b0190565b61169c90611684565b90565b67ffffffffffffffff81116116bd576116b960209161035f565b0190565b610369565b906116d46116cf8361169f565b611364565b918252565b606090565b3d5f146116f9576116ee3d6116c2565b903d5f602084013e5b565b6117016116d9565b906116f7565b61171b61171660048390610237565b6114ca565b6117265f82016114d6565b6117386117325f6114e6565b916101d4565b14611a20574261175b61175561175060c085016114d6565b6101d4565b916101d4565b1115611a015761176e6101408201611502565b61178161177b600161062b565b9161062b565b146119e2576117a461179f611798600585906109a7565b33906109c9565b610269565b6117b66117b05f6114e6565b916101d4565b146119c1576117d96117d46117cd60068590610a8f565b3390610aa5565b611546565b6119a0576101406117ea9101611502565b6117fc6117f65f61062b565b9161062b565b14611941575b61182061181b611814600584906109a7565b33906109c9565b610269565b9061184861182d5f6114e6565b61184361183c600585906109a7565b33906109c9565b6115bd565b611868600161186361185c60068590610a8f565b3390610aa5565b611602565b6118938261188d600561187d60048690610237565b019161188883610269565b611636565b906115bd565b6118d05f806118a96118a433611667565b611673565b856118b26101c2565b90816118bd81611693565b03925af16118c96116de565b5015610669565b611925579033909161192061190e6119087f286f9b9514683551b8af133ffa526235508332511e49bdfeae61522d5d4b74899361021b565b936109bd565b936119176101c2565b9182918261090d565b0390a3565b5f6312171d8360e31b81528061193d6004820161086a565b0390fd5b61195a6002600961195460048590610237565b0161157f565b806119857f7b1418b19a03b176f641639ee79855da661fa88a08377ecd32ad6d38152b95369161021b565b9061198e6101c2565b806119988161086a565b0390a2611802565b5033906119bd5f928392636101359d60e01b84526004840161150f565b0390fd5b5033906119de5f928392632add792f60e01b84526004840161150f565b0390fd5b6119fd825f918291632215870960e01b83526004830161090d565b0390fd5b611a1c825f91829163336d9e1760e01b83526004830161090d565b0390fd5b611a3b825f918291632c067cd760e01b83526004830161090d565b0390fd5b611a48906112f2565b565b611a5b90611a56612f7e565b611b71565b611a63612fd6565b565b611a6f90516105bb565b90565b916020611a93929493611a8c60408201965f83019061055a565b019061055a565b565b611a9f9051610669565b90565b611ab1611ab7919392936101d4565b926101d4565b91611ac38382026101d4565b928184041490151715611ad257565b611622565b634e487b7160e01b5f52601260045260245ffd5b611af7611afd916101d4565b916101d4565b908115611b08570490565b611ad7565b60b01b90565b90611b2260ff60b01b91611b0d565b9181191691161790565b90611b41611b3c611b48926115f3565b6115ff565b8254611b13565b9055565b611b5b611b61919392936101d4565b926101d4565b8201809211611b6c57565b611622565b611b85611b8060048390610237565b6114ca565b90611b915f83016114d6565b611ba3611b9d5f6114e6565b916101d4565b14611d995733611bc6611bc0611bbb60608601611a65565b611673565b91610650565b03611d7957611bd86101408301611502565b611beb611be5600161062b565b9161062b565b03611d4157611bfd6101808301611a95565b611d2257611cb15f80611c8a611c856060611c1a60a089016114d6565b97611c7f611c78611c4f611c47611c398d611c336108f4565b90611aa2565b611c41611237565b90611aeb565b9b8c90611636565b9a611c698b6009611c636001926004610237565b01611b2c565b611c736002610269565b611b4c565b60026115bd565b01611a65565b611673565b85611c936101c2565b9081611c9e81611693565b03925af1611caa6116de565b5015610669565b611d065790339091611d01611cef611ce97ff2f5ee55e951acd7f51568e21f2f82e8b2b809ead086416336d5921757ab8e5a9361021b565b936109bd565b93611cf86101c2565b9182918261090d565b0390a3565b5f6312171d8360e31b815280611d1e6004820161086a565b0390fd5b611d3d905f9182916354225c2b60e01b83526004830161090d565b0390fd5b50611d5a6080611d5360a084016114d6565b92016114d6565b90611d755f928392630a7c08cd60e21b845260048401611a72565b0390fd5b3390611d955f928392634dd78e1960e11b84526004840161150f565b0390fd5b611db4905f918291632c067cd760e01b83526004830161090d565b0390fd5b611dc190611a4a565b565b611dcb612ffa565b611dd3611dd5565b565b611ddd612f7e565b611de5611def565b611ded612fd6565b565b611df96002610269565b611e0c611e055f6114e6565b60026115bd565b611e495f80611e22611e1d33611667565b611673565b84611e2b6101c2565b9081611e3681611693565b03925af1611e426116de565b5015610669565b611e925733611e8d611e7b7fc0819c13be868895eb93e40eaceb96de976442fa1d404e5c55f14bb65a8c489a926109bd565b92611e846101c2565b9182918261090d565b0390a2565b5f6312171d8360e31b815280611eaa6004820161086a565b0390fd5b611eb6611dc3565b565b5f90565b606090565b5f90565b5f90565b5f90565b5f90565b5f90565b602090818080808080808080808080611eec611379565b9d8e611ef6611eb8565b815201611f01611ebc565b815201611f0c611ebc565b815201611f17611ec1565b815201611f22611eb8565b815201611f2d611eb8565b815201611f38611eb8565b815201611f43611eb8565b815201611f4e611eb8565b815201611f59611ec5565b815201611f64611ec9565b815201611f6f611ecd565b815201611f7a611ed1565b81525050565b611f88611ed5565b90565b611f93611f80565b50611faa5f611fa460048490610237565b01610269565b611fbc611fb65f6114e6565b916101d4565b14611fd757611fcf611fd4916004610237565b6114ca565b90565b611ff2905f918291632c067cd760e01b83526004830161090d565b0390fd5b5f90565b612003906107fb565b90565b61200e611ff6565b5061201830611ffa565b3190565b612024612ffa565b61202c612056565b565b61204261203d612047926114e3565b610218565b6105b0565b90565b6120539061202e565b90565b6120676120625f61204a565b613068565b565b61207161201c565b565b5f90565b6120836120889161024d565b61044e565b90565b6120959054612077565b90565b6120a0612073565b506120aa5f61208b565b90565b6120be906120b9612ffa565b6120c0565b565b6120d660016120d160078490610aa5565b611602565b6121007ff29712ea7553106dc04213b4a8b2d4bd706623bddf1d92ab875d278700e77225916109bd565b906121096101c2565b806121138161086a565b0390a2565b612121906120ad565b565b979695949392919061214861214261213d60073390610aa5565b611546565b15610669565b61215757612155986126ac565b565b612172335f91829163500aaf4f60e11b835260048301610e09565b0390fd5b61217f906114e6565b9052565b9160206121a492949361219d60408201965f830190612176565b019061055a565b565b91906121b9905f60208501940190612176565b565b6121c4906101d4565b5f1981146121d25760010190565b611622565b6121e26101a0611364565b90565b5f80fd5b67ffffffffffffffff81116122075761220360209161035f565b0190565b610369565b90825f939282370152565b9092919261222c612227826121e9565b611364565b93818552602085019082840111612248576122469261220c565b565b6121e5565b612258913691612217565b90565b5190565b601f602091010490565b1b90565b919060086122889102916122825f1984612269565b92612269565b9181191691161790565b91906122a86122a36122b09361021b565b6115ba565b90835461226d565b9055565b6122c6916122c0611ff6565b91612292565b565b5f5b8281106122d657505050565b806122e55f60019385016122b4565b016122ca565b9190601f81116122fb575b505050565b818111612308575b6122f6565b61231d61231761233b946102bd565b9161225f565b9160206123298261225f565b9110612343575b8091019103906122c8565b5f8080612303565b505f612330565b9061235a905f199060080261079b565b191690565b816123699161234a565b906002021790565b9061237b81610567565b9067ffffffffffffffff821161243b5761239f82612399855461028a565b856122eb565b602090601f83116001146123d3579180916123c2935f926123c7575b505061235f565b90555b565b90915001515f806123bb565b601f198316916123e2856102bd565b925f5b81811061242357509160029391856001969410612409575b505050020190556123c5565b612419910151601f84169061234a565b90555f80806123fd565b919360206001819287870151815501950192016123e5565b610369565b9061244a91612371565b565b9061245d60018060a01b039161159f565b9181191691161790565b6124709061165b565b90565b90565b9061248b61248661249292612467565b612473565b825461244c565b9055565b6124a090516105f7565b90565b6124ac906105f7565b90565b90565b906124c76124c26124ce926124a3565b6124af565b82546115dd565b9055565b6124dc9051610650565b90565b60101b90565b906124f962010000600160b01b03916124df565b9181191691161790565b90565b9061251b612516612522926109bd565b612503565b82546124e5565b9055565b90612666610180600961266c9461254a5f82016125445f88016114d6565b906115bd565b6125636001820161255d6020880161225b565b90612440565b61257c600282016125766040880161225b565b90612440565b6125956003820161258f60608801611a65565b90612476565b6125ae600482016125a8608088016114d6565b906115bd565b6125c7600582016125c160a088016114d6565b906115bd565b6125e0600682016125da60c088016114d6565b906115bd565b6125f9600782016125f360e088016114d6565b906115bd565b6126136008820161260d61010088016114d6565b906115bd565b61262c8282016126266101208801612496565b906124b2565b61264582820161263f6101408801611502565b9061157f565b61265e82820161265861016088016124d2565b90612506565b019201611a95565b90611b2c565b565b9061267891612526565b565b6040906126a36126aa949695939661269960608401985f85019061055a565b602083019061055a565b019061060f565b565b92979194979695909396876126c96126c35f6114e6565b916101d4565b146129fa57886126f26126ec6126e7426126e16110cb565b90611b4c565b6101d4565b916101d4565b1080156129cf575b6129b0578161271161270b5f6114e6565b916101d4565b14612990573361273161272b6127265f61204a565b610650565b91610650565b1461297157816127496127438a6101d4565b916101d4565b1015612951578661276261275c5f6105f7565b916105f7565b03612915575b6127726001610269565b61277b906121bb565b6127869060016115bd565b6127906001610269565b93949590913361279f90611667565b90895f908c92935f958c975f999a5f9c6127b76121d7565b9e8f925f8401906127c79161130d565b6127d09161224d565b90602001906127de9161131b565b6127e79161224d565b60408c01906127f59161131b565b60608b01906128039161131e565b60808a01906128119161130d565b61281a906114e6565b60a08901906128289161130d565b60c08801906128369161130d565b60e08701906128449161130d565b61284d906114e6565b61010086019061285c9161130d565b61012085019061286b9161132c565b61014084019061287a9161133a565b61016083019061288991611348565b61018082019061289891611356565b60046128a46001610269565b6128ad91610237565b906128b79161266e565b6128c16001610269565b903392937f56cc2ac3b0c40f20b5fe6fed1a77043f5aea01402e44679f4b92b1fb21544ab6926128f09061021b565b936128fa906109bd565b946129036101c2565b928392612910928461267a565b0390a3565b8261293061292a6129255f61204a565b610650565b91610650565b03612768575f630f58058360e11b81528061294d6004820161086a565b0390fd5b878261296d5f9283926332f8eedf60e01b845260048401611a72565b0390fd5b61298c335f91829163500aaf4f60e11b835260048301610e09565b0390fd5b505f6129ac5f9283926352587c4f60e11b845260048401612183565b0390fd5b6129cb5f5f91829163336d9e1760e01b8352600483016121a6565b0390fd5b50886129f46129ee6129e9426129e361105c565b90611b4c565b6101d4565b916101d4565b116126fa565b875f612a165f928392630a7c08cd60e21b845260048401612183565b0390fd5b90612a2b9897969594939291612123565b565b5f90565b612a48612a4d91612a40612a2d565b506007610aa5565b611546565b90565b612a6190612a5c612ffa565b612a63565b565b612a785f612a7360078490610aa5565b611602565b612aa27fc77d51d04162a5d61b26217b8a8c78870a02749a7a198336685c57d6f128fa4b916109bd565b90612aab6101c2565b80612ab58161086a565b0390a2565b612ac390612a50565b565b612ad690612ad1612f7e565b612ae0565b612ade612fd6565b565b612af4612aef60048390610237565b6114ca565b612aff5f82016114d6565b612b11612b0b5f6114e6565b916101d4565b14612e9057612b236101408201611502565b612b35612b2f5f61062b565b9161062b565b03612e715734612b58612b52612b4d60e085016114d6565b6101d4565b916101d4565b10612e455742612b7b612b75612b7060c085016114d6565b6101d4565b916101d4565b11612e265733612b9e612b98612b9360608501611a65565b611673565b91610650565b14612e0557612bce34612bc86005612bb860048790610237565b0191612bc383610269565b611b4c565b906115bd565b612bf76008612bdf60048590610237565b01612bf1612bec82610269565b6121bb565b906115bd565b612c2934612c23612c14612c0d600587906109a7565b33906109c9565b91612c1e83610269565b611b4c565b906115bd565b612c406005612c3a60048590610237565b01610269565b612c67612c61612c5c6004612c56818890610237565b01610269565b6101d4565b916101d4565b1015612d77575b612c7b6101208201612496565b612c8d612c875f6105f7565b916105f7565b145f14612cee5750612c9d61345a565b5b333491612ce9612cd7612cd17f0a4a91237423e0a1766a761c7cb029311d8b95d6b1b81db1b949a70c98b4e08e9361021b565b936109bd565b93612ce06101c2565b9182918261090d565b0390a3565b612cfb6101208201612496565b612d0e612d0860016105f7565b916105f7565b145f14612d3057612d25610160612d2a92016124d2565b6132ff565b5b612c9e565b612d3d6101208201612496565b612d50612d4a60026105f7565b916105f7565b14612d5c575b50612d2b565b612d6c610160612d7192016124d2565b6131a4565b5f612d56565b612d9060016009612d8a60048690610237565b0161157f565b81612d9d60608301611a65565b612db46005612dae60048790610237565b01610269565b91612dfd612deb612de57fefe2e18ff4be7579d90ec73f520ac5e6d5fc887ba9ef884f2e22a982f1a094089361021b565b93611673565b93612df46101c2565b9182918261090d565b0390a3612c6e565b503390612e225f928392634374f79560e01b84526004840161150f565b0390fd5b612e41825f91829163bfb22adf60e01b83526004830161090d565b0390fd5b612e5260e03492016114d6565b90612e6d5f9283926352587c4f60e11b845260048401611a72565b0390fd5b612e8c825f918291630f4aa3c760e31b83526004830161090d565b0390fd5b612eab825f918291632c067cd760e01b83526004830161090d565b0390fd5b612eb890612ac5565b565b612edf91612ed5612eda92612ecd611ff6565b5060056109a7565b6109c9565b610269565b90565b612ef390612eee612ffa565b612ef5565b565b80612f10612f0a612f055f61204a565b610650565b91610650565b14612f2057612f1e90613068565b565b612f43612f2c5f61204a565b5f918291631e4fbdf760e01b835260048301610e09565b0390fd5b612f5090612ee2565b565b90565b612f69612f64612f6e92612f52565b610218565b6101d4565b90565b612f7b6002612f55565b90565b612f866134df565b612fa8612f91612f71565b5f612fa2612f9d61355b565b61356f565b016115bd565b565b90565b612fc1612fbc612fc692612faa565b610218565b6101d4565b90565b612fd36001612fad565b90565b612ff8612fe1612fc9565b5f612ff2612fed61355b565b61356f565b016115bd565b565b613002612098565b61301b613015613010613572565b610650565b91610650565b0361302257565b61304461302d613572565b5f91829163118cdaa760e01b835260048301610e09565b0390fd5b9061305d613058613064926109bd565b612503565b825461244c565b9055565b6130715f61208b565b61307b825f613048565b906130af6130a97f8be0079c531659141344cd1fd0a4f28419497f9722a3daafe3b4186f6b6457e0936109bd565b916109bd565b916130b86101c2565b806130c28161086a565b0390a3565b90565b6130de6130d96130e3926130c7565b610218565b6101d4565b90565b6130ef906107df565b90565b6130fb906130e6565b90565b613107906107fb565b90565b5f80fd5b60e01b90565b5f91031261311e57565b6101cc565b91602061314492949361313d60408201965f83019061065c565b019061055a565b565b61314e6101c2565b3d5f823e3d90fd5b6131626131679161024d565b61079f565b90565b6131749054613156565b90565b90505190613184826101d7565b565b9060208282031261319f5761319c915f01613177565b90565b6101cc565b6131fb6131f66131f06131d96131c2346131bc61116e565b90611aa2565b6131d3670de0b6b3a76400006130ca565b90611aa2565b6131ea670de0b6b3a76400006130ca565b90611aeb565b926130f2565b6130fe565b906340c10f1990339092803b156132fa576132295f809461323461321d6101c2565b9788968795869461310e565b845260048401613123565b03925af180156132f5576132c9575b50613286602061325b613256600361316a565b610807565b636a6278429061327b5f339361326f6101c2565b9687958694859361310e565b835260048301610e09565b03925af180156132c457613298575b50565b6132b89060203d81116132bd575b6132b0818361037d565b810190613186565b613295565b503d6132a6565b613146565b6132e8905f3d81116132ee575b6132e0818361037d565b810190613114565b5f613243565b503d6132d6565b613146565b61310a565b61335661335161334b61333461331d3461331761116e565b90611aa2565b61332e670de0b6b3a76400006130ca565b90611aa2565b613345670de0b6b3a76400006130ca565b90611aeb565b926130f2565b6130fe565b906340c10f1990339092803b15613455576133845f809461338f6133786101c2565b9788968795869461310e565b845260048401613123565b03925af1801561345057613424575b506133e160206133b66133b1600361316a565b610807565b636a627842906133d65f33936133ca6101c2565b9687958694859361310e565b835260048301610e09565b03925af1801561341f576133f3575b50565b6134139060203d8111613418575b61340b818361037d565b810190613186565b6133f0565b503d613401565b613146565b613443905f3d8111613449575b61343b818361037d565b810190613114565b5f61339e565b503d613431565b613146565b61310a565b61349c602061347161346c600361316a565b610807565b636a627842906134915f33936134856101c2565b9687958694859361310e565b835260048301610e09565b03925af180156134da576134ae575b50565b6134ce9060203d81116134d3575b6134c6818361037d565b810190613186565b6134ab565b503d6134bc565b613146565b6134e761357f565b6134ed57565b5f633ee5aeb560e01b8152806135056004820161086a565b0390fd5b5f90565b90565b90565b61352761352261352c9261350d565b61159f565b613510565b90565b6135587f9b779b17422d0df92223018b32b4d1fa46e071723d6817e2486d003becc55f00613513565b90565b613563613509565b5061356c61352f565b90565b90565b61357a612073565b503390565b613587612a2d565b506135a25f61359c61359761355b565b61356f565b01610269565b6135bb6135b56135b0612f71565b6101d4565b916101d4565b149056fea2646970667358221220f1bb495daa0cd86051f07bed5e902bd5a70a199761afd526f253f70fdf8b7c0564736f6c634300082100336080604052346100275761001161015e565b61001961002c565b6120f96105c382396120f990f35b610032565b60405190565b5f80fd5b601f801991011690565b634e487b7160e01b5f52604160045260245ffd5b9061005e90610036565b810190811060018060401b0382111761007657604052565b610040565b9061008e61008761002c565b9283610054565b565b60018060401b0381116100ac576100a8602091610036565b0190565b610040565b906100c36100be83610090565b61007b565b918252565b5f7f466f7267654e4654000000000000000000000000000000000000000000000000910152565b6100f960086100b1565b90610106602083016100c8565b565b6101106100ef565b90565b5f7f464e465400000000000000000000000000000000000000000000000000000000910152565b61014460046100b1565b9061015160208301610113565b565b61015b61013a565b90565b6101783361016a610108565b610172610153565b916101e1565b565b90565b60018060a01b031690565b90565b61019f61019a6101a49261017a565b610188565b61017d565b90565b6101b09061018b565b90565b6101bc9061017d565b90565b6101c8906101b3565b9052565b91906101df905f602085019401906101bf565b565b916101eb9161049d565b806102066102006101fb5f6101a7565b6101b3565b916101b3565b146102165761021490610561565b565b6102396102225f6101a7565b5f918291631e4fbdf760e01b8352600483016101cc565b0390fd5b5190565b634e487b7160e01b5f52602260045260245ffd5b9060016002830492168015610275575b602083101461027057565b610241565b91607f1691610265565b5f5260205f2090565b601f602091010490565b1b90565b919060086102b19102916102ab5f1984610292565b92610292565b9181191691161790565b90565b6102d26102cd6102d7926102bb565b610188565b6102bb565b90565b90565b91906102f36102ee6102fb936102be565b6102da565b908354610296565b9055565b5f90565b6103159161030f6102ff565b916102dd565b565b5f5b82811061032557505050565b806103345f6001938501610303565b01610319565b9190601f811161034a575b505050565b818111610357575b610345565b61036c61036661038a9461027f565b91610288565b91602061037882610288565b9110610392575b809101910390610317565b5f8080610352565b505f61037f565b1c90565b906103ad905f1990600802610399565b191690565b816103bc9161039d565b906002021790565b906103ce8161023d565b9060018060401b03821161048c576103f0826103ea8554610255565b8561033a565b602090601f831160011461042457918091610413935f92610418575b50506103b2565b90555b565b90915001515f8061040c565b601f198316916104338561027f565b925f5b8181106104745750916002939185600196941061045a575b50505002019055610416565b61046a910151601f84169061039d565b90555f808061044e565b91936020600181928787015181550195019201610436565b610040565b9061049b916103c4565b565b906104ab6104b2925f610491565b6001610491565b565b5f1c90565b60018060a01b031690565b6104d06104d5916104b4565b6104b9565b90565b6104e290546104c4565b90565b5f1b90565b906104fb60018060a01b03916104e5565b9181191691161790565b61051961051461051e9261017d565b610188565b61017d565b90565b61052a90610505565b90565b61053690610521565b90565b90565b9061055161054c6105589261052d565b610539565b82546104ea565b9055565b5f0190565b61056b60066104d8565b61057682600661053c565b906105aa6105a47f8be0079c531659141344cd1fd0a4f28419497f9722a3daafe3b4186f6b6457e09361052d565b9161052d565b916105b361002c565b806105bd8161055c565b0390a356fe60806040526004361015610013575b610900565b61001d5f3561013c565b806301ffc9a71461013757806306fdde0314610132578063081812fc1461012d578063095ea7b31461012857806318160ddd1461012357806323b872dd1461011e57806342842e0e146101195780636352211e146101145780636a6278421461010f57806370a082311461010a578063715018a6146101055780638da5cb5b1461010057806395d89b41146100fb578063a22cb465146100f6578063b88d4fde146100f1578063c87b56dd146100ec578063e985e9c5146100e75763f2fde38b0361000e576108cd565b610897565b610835565b6107fe565b61068a565b610605565b6105d0565b61059d565b610568565b610533565b6104e0565b6104ac565b610478565b610409565b6103b3565b610329565b610277565b6101c8565b60e01c90565b60405190565b5f80fd5b5f80fd5b5f80fd5b63ffffffff60e01b1690565b61016981610154565b0361017057565b5f80fd5b9050359061018182610160565b565b9060208282031261019c57610199915f01610174565b90565b61014c565b151590565b6101af906101a1565b9052565b91906101c6905f602085019401906101a6565b565b346101f8576101f46101e36101de366004610183565b610908565b6101eb610142565b918291826101b3565b0390f35b610148565b5f91031261020757565b61014c565b5190565b60209181520190565b90825f9392825e0152565b601f801991011690565b61024d61025660209361025b936102448161020c565b93848093610210565b95869101610219565b610224565b0190565b6102749160208201915f81840391015261022e565b90565b346102a7576102873660046101fd565b6102a3610292610a8c565b61029a610142565b9182918261025f565b0390f35b610148565b90565b6102b8816102ac565b036102bf57565b5f80fd5b905035906102d0826102af565b565b906020828203126102eb576102e8915f016102c3565b90565b61014c565b60018060a01b031690565b610304906102f0565b90565b610310906102fb565b9052565b9190610327905f60208501940190610307565b565b346103595761035561034461033f3660046102d2565b610aa5565b61034c610142565b91829182610314565b0390f35b610148565b610367816102fb565b0361036e57565b5f80fd5b9050359061037f8261035e565b565b91906040838203126103a9578061039d6103a6925f8601610372565b936020016102c3565b90565b61014c565b5f0190565b346103e2576103cc6103c6366004610381565b90610ac4565b6103d4610142565b806103de816103ae565b0390f35b610148565b6103f0906102ac565b9052565b9190610407905f602085019401906103e7565b565b34610439576104193660046101fd565b610435610424610b07565b61042c610142565b918291826103f4565b0390f35b610148565b909160608284031261047357610470610459845f8501610372565b936104678160208601610372565b936040016102c3565b90565b61014c565b346104a75761049161048b36600461043e565b91610b7d565b610499610142565b806104a3816103ae565b0390f35b610148565b346104db576104c56104bf36600461043e565b91610c69565b6104cd610142565b806104d7816103ae565b0390f35b610148565b346105105761050c6104fb6104f63660046102d2565b610c7f565b610503610142565b91829182610314565b0390f35b610148565b9060208282031261052e5761052b915f01610372565b90565b61014c565b346105635761055f61054e610549366004610515565b610d72565b610556610142565b918291826103f4565b0390f35b610148565b346105985761059461058361057e366004610515565b610dd0565b61058b610142565b918291826103f4565b0390f35b610148565b346105cb576105ad3660046101fd565b6105b5610e5b565b6105bd610142565b806105c7816103ae565b0390f35b610148565b34610600576105e03660046101fd565b6105fc6105eb610e91565b6105f3610142565b91829182610314565b0390f35b610148565b34610635576106153660046101fd565b610631610620610ea7565b610628610142565b9182918261025f565b0390f35b610148565b610643816101a1565b0361064a57565b5f80fd5b9050359061065b8261063a565b565b91906040838203126106855780610679610682925f8601610372565b9360200161064e565b90565b61014c565b346106b9576106a361069d36600461065d565b90610ebd565b6106ab610142565b806106b5816103ae565b0390f35b610148565b5f80fd5b5f80fd5b634e487b7160e01b5f52604160045260245ffd5b906106e490610224565b810190811067ffffffffffffffff8211176106fe57604052565b6106c6565b9061071661070f610142565b92836106da565b565b67ffffffffffffffff811161073657610732602091610224565b0190565b6106c6565b90825f939282370152565b9092919261075b61075682610718565b610703565b93818552602085019082840111610777576107759261073b565b565b6106c2565b9080601f8301121561079a5781602061079793359101610746565b90565b6106be565b906080828203126107f9576107b6815f8401610372565b926107c48260208501610372565b926107d283604083016102c3565b92606082013567ffffffffffffffff81116107f4576107f1920161077c565b90565b610150565b61014c565b346108305761081a61081136600461079f565b92919091610ed3565b610822610142565b8061082c816103ae565b0390f35b610148565b346108655761086161085061084b3660046102d2565b610f99565b610858610142565b9182918261025f565b0390f35b610148565b9190604083820312610892578061088661088f925f8601610372565b93602001610372565b90565b61014c565b346108c8576108c46108b36108ad36600461086a565b90611058565b6108bb610142565b918291826101b3565b0390f35b610148565b346108fb576108e56108e0366004610515565b6110e5565b6108ed610142565b806108f7816103ae565b0390f35b610148565b5f80fd5b5f90565b610910610904565b508061092b6109256380ac58cd60e01b610154565b91610154565b14801561094f575b90811561093f575b5090565b61094991506110f0565b5f61093b565b508061096a610964635b5e139f60e01b610154565b91610154565b14610933565b606090565b634e487b7160e01b5f52602260045260245ffd5b90600160028304921680156109a9575b60208310146109a457565b610975565b91607f1691610999565b60209181520190565b5f5260205f2090565b905f92918054906109df6109d883610989565b80946109b3565b916001811690815f14610a3657506001146109fa575b505050565b610a0791929394506109bc565b915f925b818410610a1e57505001905f80806109f5565b60018160209295939554848601520191019290610a0b565b92949550505060ff19168252151560200201905f80806109f5565b90610a5b916109c5565b90565b90610a7e610a7792610a6e610142565b93848092610a51565b03836106da565b565b610a8990610a5e565b90565b610a94610970565b50610a9e5f610a80565b90565b5f90565b610ac190610ab1610aa1565b50610abb81611116565b50611182565b90565b90610ad89190610ad26111a1565b916111ae565b565b5f90565b5f1c90565b90565b610af2610af791610ade565b610ae3565b90565b610b049054610ae6565b90565b610b0f610ada565b50610b1a6007610afa565b90565b90565b90565b610b37610b32610b3c92610b1d565b610b20565b6102f0565b90565b610b4890610b23565b90565b604090610b74610b7b9496959396610b6a60608401985f850190610307565b60208301906103e7565b0190610307565b565b919080610b9a610b94610b8f5f610b3f565b6102fb565b916102fb565b14610bf157610bb29082610bac6111a1565b91611237565b9182610bc6610bc0836102fb565b916102fb565b03610bd057505050565b610bed9091925f9384936364283d7b60e01b855260048501610b4b565b0390fd5b610c14610bfd5f610b3f565b5f918291633250574960e11b835260048301610314565b0390fd5b67ffffffffffffffff8111610c3657610c32602091610224565b0190565b6106c6565b90610c4d610c4883610c18565b610703565b918252565b610c5b5f610c3b565b90565b610c66610c52565b90565b91610c7d9291610c77610c5e565b92610ed3565b565b610c9190610c8b610aa1565b50611116565b90565b90610ca691610ca16113b8565b610d33565b90565b634e487b7160e01b5f52601160045260245ffd5b610cc6906102ac565b5f198114610cd45760010190565b610ca9565b5f1b90565b90610cea5f1991610cd9565b9181191691161790565b610d08610d03610d0d926102ac565b610b20565b6102ac565b90565b90565b90610d28610d23610d2f92610cf4565b610d10565b8254610cde565b9055565b90610d659150610d55610d4e610d496007610afa565b610cbd565b6007610d13565b610d5f6007610afa565b90611406565b610d6f6007610afa565b90565b610d8390610d7e610ada565b610c94565b90565b610d9a610d95610d9f926102f0565b610b20565b6102f0565b90565b610dab90610d86565b90565b610db790610da2565b90565b90610dc490610dae565b5f5260205260405f2090565b610dd8610ada565b5080610df4610dee610de95f610b3f565b6102fb565b916102fb565b14610e0f57610e07610e0c916003610dba565b610afa565b90565b610e32610e1b5f610b3f565b5f9182916322718ad960e21b835260048301610314565b0390fd5b610e3e6113b8565b610e46610e48565b565b610e59610e545f610b3f565b61141c565b565b610e63610e36565b565b60018060a01b031690565b610e7c610e8191610ade565b610e65565b90565b610e8e9054610e70565b90565b610e99610aa1565b50610ea46006610e84565b90565b610eaf610970565b50610eba6001610a80565b90565b610ed191610ec96111a1565b9190916114c2565b565b91610ef79391610ee584828491610b7d565b610eed6111a1565b93909192936116d3565b565b90565b5190565b610f14610f0f610f1992610b1d565b610b20565b6102ac565b90565b610f24610c52565b90565b905090565b610f51610f4892602092610f3f8161020c565b94858093610f27565b93849101610219565b0190565b610f6390610f699392610f2c565b90610f2c565b90565b610f8b9291610f9791610f7d610142565b948592602084019283610f55565b908103825203836106da565b565b610fa1610970565b50610fab81611116565b50610fb4611827565b90610fc6610fc183610ef9565b610efc565b610fd8610fd25f610f00565b916102ac565b115f14610ff657610fec610ff292916118cb565b90610f6c565b5b90565b5050611000610f1c565b610ff3565b9061100f90610dae565b5f5260205260405f2090565b9061102590610dae565b5f5260205260405f2090565b60ff1690565b61104361104891610ade565b611031565b90565b6110559054611037565b90565b61107d916110736110789261106b610904565b506005611005565b61101b565b61104b565b90565b6110919061108c6113b8565b611093565b565b806110ae6110a86110a35f610b3f565b6102fb565b916102fb565b146110be576110bc9061141c565b565b6110e16110ca5f610b3f565b5f918291631e4fbdf760e01b835260048301610314565b0390fd5b6110ee90611080565b565b6110f8610904565b5061111261110c6301ffc9a760e01b610154565b91610154565b1490565b61111e610aa1565b5061112881611974565b908161114461113e6111395f610b3f565b6102fb565b916102fb565b1461114d575090565b611168905f918291637e27328960e01b8352600483016103f4565b0390fd5b9061117690610cf4565b5f5260205260405f2090565b61119961119e91611191610aa1565b50600461116c565b610e84565b90565b6111a9610aa1565b503390565b916111bc9291600192611993565b565b90565b6111d56111d06111da926111be565b610b20565b6102ac565b90565b906111e891036102ac565b90565b906111f691016102ac565b90565b9061120a60018060a01b0391610cd9565b9181191691161790565b90565b9061122c61122761123392610dae565b611214565b82546111f9565b9055565b90611240610aa1565b5061124a81611974565b928061126661126061125b5f610b3f565b6102fb565b916102fb565b036113a5575b508261128861128261127d5f610b3f565b6102fb565b916102fb565b03611351575b816112a96112a361129e5f610b3f565b6102fb565b916102fb565b0361131b575b6112c4826112bf6002849061116c565b611217565b82916113026112fc6112f67fddf252ad1be2c89b69c2b068fc378daa952ba7f163c4a11628f55a4df523b3ef95610dae565b92610dae565b92610cf4565b9261130b610142565b80611315816103ae565b0390a490565b61134c61132860016111c1565b61134661133760038690610dba565b9161134183610afa565b6111eb565b90610d13565b6112af565b61136f61135d5f610b3f565b826113675f610b3f565b905f92611993565b6113a061137c60016111c1565b61139a61138b60038790610dba565b9161139583610afa565b6111dd565b90610d13565b61128e565b6113b29084908391611b00565b5f61126c565b6113c0610e91565b6113d96113d36113ce6111a1565b6102fb565b916102fb565b036113e057565b6114026113eb6111a1565b5f91829163118cdaa760e01b835260048301610314565b0390fd5b9061141a9190611414610c5e565b91611b7c565b565b6114266006610e84565b611431826006611217565b9061146561145f7f8be0079c531659141344cd1fd0a4f28419497f9722a3daafe3b4186f6b6457e093610dae565b91610dae565b9161146e610142565b80611478816103ae565b0390a3565b9061148960ff91610cd9565b9181191691161790565b61149c906101a1565b90565b90565b906114b76114b26114be92611493565b61149f565b825461147d565b9055565b919091806114e06114da6114d55f610b3f565b6102fb565b916102fb565b1461159357826115006114fa6114f55f610b3f565b6102fb565b916102fb565b14611574576115248261151f61151860058590611005565b869061101b565b6114a2565b91909161156f61155d6115577f17307eab39ab6107e8899845ad3d59bd9653f200f220920489ca2b5937696c3193610dae565b93610dae565b93611566610142565b918291826101b3565b0390a3565b61158f835f918291630b61174360e31b835260048301610314565b0390fd5b6115b661159f5f610b3f565b5f91829163a9fbf51f60e01b835260048301610314565b0390fd5b6115c390610d86565b90565b6115cf906115ba565b90565b6115db90610da2565b90565b60e01b90565b905051906115f182610160565b565b9060208282031261160c57611609915f016115e4565b90565b61014c565b60209181520190565b6116396116426020936116479361163081610efc565b93848093611611565b95869101610219565b610224565b0190565b909261167e9061167461168b969461166a60808601975f870190610307565b6020850190610307565b60408301906103e7565b606081840391015261161a565b90565b906116a061169b83610718565b610703565b918252565b606090565b3d5f146116c5576116ba3d61168e565b903d5f602084013e5b565b6116cd6116a5565b906116c3565b9193843b6116e96116e35f610f00565b916102ac565b116116f6575b5050505050565b61172e5f60209461173961171161170c8a6115c6565b6115d2565b9463150b7a02929698611722610142565b998a98899788966115de565b86526004860161164b565b03925af180915f926117f7575b50155f146117b45750600161176157505b5f808080806116ef565b6117696116aa565b9061177382610efc565b61178561177f5f610f00565b916102ac565b145f146117ab576117a7905f918291633250574960e11b835260048301610314565b0390fd5b50602081519101fd5b6117cd6117c7630a85bd0160e11b610154565b91610154565b036117d85750611757565b6117f3905f918291633250574960e11b835260048301610314565b0390fd5b61181991925060203d8111611820575b61181181836106da565b8101906115f3565b905f611746565b503d611807565b61182f610970565b50611838610f1c565b90565b369037565b9061186561184d83610c3b565b9260208061185b8693610c18565b920191039061183b565b565b600161187391036102ac565b90565b90565b61188d61188861189292611876565b610b20565b6102ac565b90565b634e487b7160e01b5f52601260045260245ffd5b6118b56118bb916102ac565b916102ac565b9081156118c6570490565b611895565b6118d3610970565b506118f06118e082611d1e565b6118ea60016111c1565b906111eb565b906118fa82611840565b91611903610ada565b5060208301015b60011561196d5761191d61194991611867565b916f181899199a1a9b1b9c1cb0b131b232b360811b600a82061a8353611943600a611879565b906118a9565b8061195c6119565f610f00565b916102ac565b14611967579061190a565b50505b90565b505061196a565b61198b61199091611983610aa1565b50600261116c565b610e84565b90565b919092808015611aba575b6119bc575b5050906119b56119ba9291600461116c565b611217565b565b6119c584611116565b91806119e16119db6119d65f610b3f565b6102fb565b916102fb565b141580611a9f575b80611a85575b611a665750916119b5916119ba9493611a0b575b5091926119a3565b818490611a4a611a44611a3e7f8c5be1e5ebec7d5bd14f71427d1e84f3dd0314c0f7b2291e5b200ac8c7c3b92595610dae565b92610dae565b92610cf4565b92611a53610142565b80611a5d816103ae565b0390a45f611a03565b611a81905f91829163a9fbf51f60e01b835260048301610314565b0390fd5b50611a9a611a94848390611058565b156101a1565b6119ef565b5082611ab3611aad836102fb565b916102fb565b14156119e9565b5081611ad6611ad0611acb5f610b3f565b6102fb565b916102fb565b141561199e565b916020611afe929493611af760408201965f830190610307565b01906103e7565b565b611b15611b0f82848691611f7f565b156101a1565b611b1e57505050565b611b38611b32611b2d5f610b3f565b6102fb565b916102fb565b145f14611b5e57611b5a825f918291637e27328960e01b8352600483016103f4565b0390fd5b611b785f92839263177e802f60e01b845260048401611add565b0390fd5b9091611ba892611b8d83829061201f565b611b956111a1565b92611b9f5f610b3f565b909192936116d3565b565b90565b611bc1611bbc611bc692611baa565b610b20565b6102ac565b90565b90565b611be0611bdb611be592611bc9565b610b20565b6102ac565b90565b90565b611bff611bfa611c0492611be8565b610b20565b6102ac565b90565b90565b611c1e611c19611c2392611c07565b610b20565b6102ac565b90565b90565b611c3d611c38611c4292611c26565b610b20565b6102ac565b90565b90565b611c5c611c57611c6192611c45565b610b20565b6102ac565b90565b90565b611c7b611c76611c8092611c64565b610b20565b6102ac565b90565b90565b611c9a611c95611c9f92611c83565b610b20565b6102ac565b90565b90565b611cb9611cb4611cbe92611ca2565b610b20565b6102ac565b90565b90565b611cd8611cd3611cdd92611cc1565b610b20565b6102ac565b90565b90565b611cf7611cf2611cfc92611ce0565b610b20565b6102ac565b90565b90565b611d16611d11611d1b92611cff565b610b20565b6102ac565b90565b611d26610ada565b50611d305f610f00565b9080611d5f611d597a184f03e93ff9f4daa797ed6e38ed64bf6a1f010000000000000000611bad565b916102ac565b1015611f37575b80611d87611d816d04ee2d6d415b85acef8100000000611beb565b916102ac565b1015611efc575b80611da8611da2662386f26fc10000611c29565b916102ac565b1015611ec8575b80611dc6611dc06305f5e100611c67565b916102ac565b1015611e97575b80611de2611ddc612710611ca5565b916102ac565b1015611e68575b80611dfd611df76064611ce3565b916102ac565b1015611e3a575b611e17611e11600a611879565b916102ac565b1015611e21575b90565b611e3590611e2f60016111c1565b906111eb565b611e1e565b611e51611e6291611e4b6064611ce3565b906118a9565b91611e5c6002611d02565b906111eb565b90611e04565b611e80611e9191611e7a612710611ca5565b906118a9565b91611e8b6004611cc4565b906111eb565b90611de9565b611eb1611ec291611eab6305f5e100611c67565b906118a9565b91611ebc6008611c86565b906111eb565b90611dcd565b611ee5611ef691611edf662386f26fc10000611c29565b906118a9565b91611ef06010611c48565b906111eb565b90611daf565b611f20611f3191611f1a6d04ee2d6d415b85acef8100000000611beb565b906118a9565b91611f2b6020611c0a565b906111eb565b90611d8e565b611f68611f7991611f627a184f03e93ff9f4daa797ed6e38ed64bf6a1f010000000000000000611bad565b906118a9565b91611f736040611bcc565b906111eb565b90611d66565b9190611f89610904565b5080611fa5611f9f611f9a5f610b3f565b6102fb565b916102fb565b14159283611fb4575b50505090565b8091929350611fcb611fc5846102fb565b916102fb565b1490811561200d575b50918215611fe7575b50505f8080611fae565b612005919250611ff9611fff91611182565b926102fb565b916102fb565b145f80611fdd565b61201991508290611058565b5f611fd4565b908161203b6120356120305f610b3f565b6102fb565b916102fb565b1461209c57612054919061204e5f610b3f565b91611237565b61206e6120686120635f610b3f565b6102fb565b916102fb565b0361207557565b6120986120815f610b3f565b5f9182916339e3563760e11b835260048301610314565b0390fd5b6120bf6120a85f610b3f565b5f918291633250574960e11b835260048301610314565b0390fdfea26469706673582212203ee1a1c8c63baa0dd62393928c1ee2a5278fa738f0bb121a1ed6afa44d23d65f64736f6c63430008210033","linkReferences":{}},"methodIdentifiers":{"FEE_DENOMINATOR()":"d73792a9","MAX_DURATION()":"b1724b46","MIN_DURATION()":"b6a6d177","PLATFORM_FEE()":"34fbc9a1","TOKENS_PER_ETH()":"bc6e6604","campaignCount()":"7274e30d","campaigns(uint256)":"141961bc","contribute(uint256)":"c1cbbca7","contributions(uint256,address)":"3d891f59","createCampaign(string,string,uint256,uint256,uint256,uint8,address)":"9cebe9d5","feeBalance()":"60b71d4e","forgeNFT()":"25cb9e51","getCampaign(uint256)":"5598f8cc","getContractBalance()":"6f9fb98a","getContribution(uint256,address)":"e081dbf9","isVerified(address)":"b9209e33","owner()":"8da5cb5b","refund(uint256)":"278ecde1","refunded(uint256,address)":"4f1ff459","renounceOwnership()":"715018a6","revokeCreator(address)":"c0e69af6","transferOwnership(address)":"f2fde38b","verifiedCreators(address)":"add150bc","verifyCreator(address)":"98dd1b65","withdraw(uint256)":"2e1a7d4d","withdrawFees()":"476343ee"},"id":41}