{"abi":[{"type":"constructor","inputs":[],"stateMutability":"nonpayable"},{"type":"function","name":"approve","inputs":[{"name":"to","type":"address","internalType":"address"},{"name":"tokenId","type":"uint256","internalType":"uint256"}],"outputs":[],"stateMutability":"nonpayable"},{"type":"function","name":"balanceOf","inputs":[{"name":"owner","type":"address","internalType":"address"}],"outputs":[{"name":"","type":"uint256","internalType":"uint256"}],"stateMutability":"view"},{"type":"function","name":"getApproved","inputs":[{"name":"tokenId","type":"uint256","internalType":"uint256"}],"outputs":[{"name":"","type":"address","internalType":"address"}],"stateMutability":"view"},{"type":"function","name":"isApprovedForAll","inputs":[{"name":"owner","type":"address","internalType":"address"},{"name":"operator","type":"address","internalType":"address"}],"outputs":[{"name":"","type":"bool","internalType":"bool"}],"stateMutability":"view"},{"type":"function","name":"mint","inputs":[{"name":"_to","type":"address","internalType":"address"}],"outputs":[{"name":"","type":"uint256","internalType":"uint256"}],"stateMutability":"nonpayable"},{"type":"function","name":"name","inputs":[],"outputs":[{"name":"","type":"string","internalType":"string"}],"stateMutability":"view"},{"type":"function","name":"owner","inputs":[],"outputs":[{"name":"","type":"address","internalType":"address"}],"stateMutability":"view"},{"type":"function","name":"ownerOf","inputs":[{"name":"tokenId","type":"uint256","internalType":"uint256"}],"outputs":[{"name":"","type":"address","internalType":"address"}],"stateMutability":"view"},{"type":"function","name":"renounceOwnership","inputs":[],"outputs":[],"stateMutability":"nonpayable"},{"type":"function","name":"safeTransferFrom","inputs":[{"name":"from","type":"address","internalType":"address"},{"name":"to","type":"address","internalType":"address"},{"name":"tokenId","type":"uint256","internalType":"uint256"}],"outputs":[],"stateMutability":"nonpayable"},{"type":"function","name":"safeTransferFrom","inputs":[{"name":"from","type":"address","internalType":"address"},{"name":"to","type":"address","internalType":"address"},{"name":"tokenId","type":"uint256","internalType":"uint256"},{"name":"data","type":"bytes","internalType":"bytes"}],"outputs":[],"stateMutability":"nonpayable"},{"type":"function","name":"setApprovalForAll","inputs":[{"name":"operator","type":"address","internalType":"address"},{"name":"approved","type":"bool","internalType":"bool"}],"outputs":[],"stateMutability":"nonpayable"},{"type":"function","name":"supportsInterface","inputs":[{"name":"interfaceId","type":"bytes4","internalType":"bytes4"}],"outputs":[{"name":"","type":"bool","internalType":"bool"}],"stateMutability":"view"},{"type":"function","name":"symbol","inputs":[],"outputs":[{"name":"","type":"string","internalType":"string"}],"stateMutability":"view"},{"type":"function","name":"tokenURI","inputs":[{"name":"tokenId","type":"uint256","internalType":"uint256"}],"outputs":[{"name":"","type":"string","internalType":"string"}],"stateMutability":"view"},{"type":"function","name":"totalSupply","inputs":[],"outputs":[{"name":"","type":"uint256","internalType":"uint256"}],"stateMutability":"view"},{"type":"function","name":"transferFrom","inputs":[{"name":"from","type":"address","internalType":"address"},{"name":"to","type":"address","internalType":"address"},{"name":"tokenId","type":"uint256","internalType":"uint256"}],"outputs":[],"stateMutability":"nonpayable"},{"type":"function","name":"transferOwnership","inputs":[{"name":"newOwner","type":"address","internalType":"address"}],"outputs":[],"stateMutability":"nonpayable"},{"type":"event","name":"Approval","inputs":[{"name":"owner","type":"address","indexed":true,"internalType":"address"},{"name":"approved","type":"address","indexed":true,"internalType":"address"},{"name":"tokenId","type":"uint256","indexed":true,"internalType":"uint256"}],"anonymous":false},{"type":"event","name":"ApprovalForAll","inputs":[{"name":"owner","type":"address","indexed":true,"internalType":"address"},{"name":"operator","type":"address","indexed":true,"internalType":"address"},{"name":"approved","type":"bool","indexed":false,"internalType":"bool"}],"anonymous":false},{"type":"event","name":"OwnershipTransferred","inputs":[{"name":"previousOwner","type":"address","indexed":true,"internalType":"address"},{"name":"newOwner","type":"address","indexed":true,"internalType":"address"}],"anonymous":false},{"type":"event","name":"Transfer","inputs":[{"name":"from","type":"address","indexed":true,"internalType":"address"},{"name":"to","type":"address","indexed":true,"internalType":"address"},{"name":"tokenId","type":"uint256","indexed":true,"internalType":"uint256"}],"anonymous":false},{"type":"error","name":"ERC721IncorrectOwner","inputs":[{"name":"sender","type":"address","internalType":"address"},{"name":"tokenId","type":"uint256","internalType":"uint256"},{"name":"owner","type":"address","internalType":"address"}]},{"type":"error","name":"ERC721InsufficientApproval","inputs":[{"name":"operator","type":"address","internalType":"address"},{"name":"tokenId","type":"uint256","internalType":"uint256"}]},{"type":"error","name":"ERC721InvalidApprover","inputs":[{"name":"approver","type":"address","internalType":"address"}]},{"type":"error","name":"ERC721InvalidOperator","inputs":[{"name":"operator","type":"address","internalType":"address"}]},{"type":"error","name":"ERC721InvalidOwner","inputs":[{"name":"owner","type":"address","internalType":"address"}]},{"type":"error","name":"ERC721InvalidReceiver","inputs":[{"name":"receiver","type":"address","internalType":"address"}]},{"type":"error","name":"ERC721InvalidSender","inputs":[{"name":"sender","type":"address","internalType":"address"}]},{"type":"error","name":"ERC721NonexistentToken","inputs":[{"name":"tokenId","type":"uint256","internalType":"uint256"}]},{"type":"error","name":"OwnableInvalidOwner","inputs":[{"name":"owner","type":"address","internalType":"address"}]},{"type":"error","name":"OwnableUnauthorizedAccount","inputs":[{"name":"account","type":"address","internalType":"address"}]}],"bytecode":{"object":"0x6080604052346100275761001161015e565b61001961002c565b6120f96105c382396120f990f35b610032565b60405190565b5f80fd5b601f801991011690565b634e487b7160e01b5f52604160045260245ffd5b9061005e90610036565b810190811060018060401b0382111761007657604052565b610040565b9061008e61008761002c565b9283610054565b565b60018060401b0381116100ac576100a8602091610036565b0190565b610040565b906100c36100be83610090565b61007b565b918252565b5f7f466f7267654e4654000000000000000000000000000000000000000000000000910152565b6100f960086100b1565b90610106602083016100c8565b565b6101106100ef565b90565b5f7f464e465400000000000000000000000000000000000000000000000000000000910152565b61014460046100b1565b9061015160208301610113565b565b61015b61013a565b90565b6101783361016a610108565b610172610153565b916101e1565b565b90565b60018060a01b031690565b90565b61019f61019a6101a49261017a565b610188565b61017d565b90565b6101b09061018b565b90565b6101bc9061017d565b90565b6101c8906101b3565b9052565b91906101df905f602085019401906101bf565b565b916101eb9161049d565b806102066102006101fb5f6101a7565b6101b3565b916101b3565b146102165761021490610561565b565b6102396102225f6101a7565b5f918291631e4fbdf760e01b8352600483016101cc565b0390fd5b5190565b634e487b7160e01b5f52602260045260245ffd5b9060016002830492168015610275575b602083101461027057565b610241565b91607f1691610265565b5f5260205f2090565b601f602091010490565b1b90565b919060086102b19102916102ab5f1984610292565b92610292565b9181191691161790565b90565b6102d26102cd6102d7926102bb565b610188565b6102bb565b90565b90565b91906102f36102ee6102fb936102be565b6102da565b908354610296565b9055565b5f90565b6103159161030f6102ff565b916102dd565b565b5f5b82811061032557505050565b806103345f6001938501610303565b01610319565b9190601f811161034a575b505050565b818111610357575b610345565b61036c61036661038a9461027f565b91610288565b91602061037882610288565b9110610392575b809101910390610317565b5f8080610352565b505f61037f565b1c90565b906103ad905f1990600802610399565b191690565b816103bc9161039d565b906002021790565b906103ce8161023d565b9060018060401b03821161048c576103f0826103ea8554610255565b8561033a565b602090601f831160011461042457918091610413935f92610418575b50506103b2565b90555b565b90915001515f8061040c565b601f198316916104338561027f565b925f5b8181106104745750916002939185600196941061045a575b50505002019055610416565b61046a910151601f84169061039d565b90555f808061044e565b91936020600181928787015181550195019201610436565b610040565b9061049b916103c4565b565b906104ab6104b2925f610491565b6001610491565b565b5f1c90565b60018060a01b031690565b6104d06104d5916104b4565b6104b9565b90565b6104e290546104c4565b90565b5f1b90565b906104fb60018060a01b03916104e5565b9181191691161790565b61051961051461051e9261017d565b610188565b61017d565b90565b61052a90610505565b90565b61053690610521565b90565b90565b9061055161054c6105589261052d565b610539565b82546104ea565b9055565b5f0190565b61056b60066104d8565b61057682600661053c565b906105aa6105a47f8be0079c531659141344cd1fd0a4f28419497f9722a3daafe3b4186f6b6457e09361052d565b9161052d565b916105b361002c565b806105bd8161055c565b0390a356fe60806040526004361015610013575b610900565b61001d5f3561013c565b806301ffc9a71461013757806306fdde0314610132578063081812fc1461012d578063095ea7b31461012857806318160ddd1461012357806323b872dd1461011e57806342842e0e146101195780636352211e146101145780636a6278421461010f57806370a082311461010a578063715018a6146101055780638da5cb5b1461010057806395d89b41146100fb578063a22cb465146100f6578063b88d4fde146100f1578063c87b56dd146100ec578063e985e9c5146100e75763f2fde38b0361000e576108cd565b610897565b610835565b6107fe565b61068a565b610605565b6105d0565b61059d565b610568565b610533565b6104e0565b6104ac565b610478565b610409565b6103b3565b610329565b610277565b6101c8565b60e01c90565b60405190565b5f80fd5b5f80fd5b5f80fd5b63ffffffff60e01b1690565b61016981610154565b0361017057565b5f80fd5b9050359061018182610160565b565b9060208282031261019c57610199915f01610174565b90565b61014c565b151590565b6101af906101a1565b9052565b91906101c6905f602085019401906101a6565b565b346101f8576101f46101e36101de366004610183565b610908565b6101eb610142565b918291826101b3565b0390f35b610148565b5f91031261020757565b61014c565b5190565b60209181520190565b90825f9392825e0152565b601f801991011690565b61024d61025660209361025b936102448161020c565b93848093610210565b95869101610219565b610224565b0190565b6102749160208201915f81840391015261022e565b90565b346102a7576102873660046101fd565b6102a3610292610a8c565b61029a610142565b9182918261025f565b0390f35b610148565b90565b6102b8816102ac565b036102bf57565b5f80fd5b905035906102d0826102af565b565b906020828203126102eb576102e8915f016102c3565b90565b61014c565b60018060a01b031690565b610304906102f0565b90565b610310906102fb565b9052565b9190610327905f60208501940190610307565b565b346103595761035561034461033f3660046102d2565b610aa5565b61034c610142565b91829182610314565b0390f35b610148565b610367816102fb565b0361036e57565b5f80fd5b9050359061037f8261035e565b565b91906040838203126103a9578061039d6103a6925f8601610372565b936020016102c3565b90565b61014c565b5f0190565b346103e2576103cc6103c6366004610381565b90610ac4565b6103d4610142565b806103de816103ae565b0390f35b610148565b6103f0906102ac565b9052565b9190610407905f602085019401906103e7565b565b34610439576104193660046101fd565b610435610424610b07565b61042c610142565b918291826103f4565b0390f35b610148565b909160608284031261047357610470610459845f8501610372565b936104678160208601610372565b936040016102c3565b90565b61014c565b346104a75761049161048b36600461043e565b91610b7d565b610499610142565b806104a3816103ae565b0390f35b610148565b346104db576104c56104bf36600461043e565b91610c69565b6104cd610142565b806104d7816103ae565b0390f35b610148565b346105105761050c6104fb6104f63660046102d2565b610c7f565b610503610142565b91829182610314565b0390f35b610148565b9060208282031261052e5761052b915f01610372565b90565b61014c565b346105635761055f61054e610549366004610515565b610d72565b610556610142565b918291826103f4565b0390f35b610148565b346105985761059461058361057e366004610515565b610dd0565b61058b610142565b918291826103f4565b0390f35b610148565b346105cb576105ad3660046101fd565b6105b5610e5b565b6105bd610142565b806105c7816103ae565b0390f35b610148565b34610600576105e03660046101fd565b6105fc6105eb610e91565b6105f3610142565b91829182610314565b0390f35b610148565b34610635576106153660046101fd565b610631610620610ea7565b610628610142565b9182918261025f565b0390f35b610148565b610643816101a1565b0361064a57565b5f80fd5b9050359061065b8261063a565b565b91906040838203126106855780610679610682925f8601610372565b9360200161064e565b90565b61014c565b346106b9576106a361069d36600461065d565b90610ebd565b6106ab610142565b806106b5816103ae565b0390f35b610148565b5f80fd5b5f80fd5b634e487b7160e01b5f52604160045260245ffd5b906106e490610224565b810190811067ffffffffffffffff8211176106fe57604052565b6106c6565b9061071661070f610142565b92836106da565b565b67ffffffffffffffff811161073657610732602091610224565b0190565b6106c6565b90825f939282370152565b9092919261075b61075682610718565b610703565b93818552602085019082840111610777576107759261073b565b565b6106c2565b9080601f8301121561079a5781602061079793359101610746565b90565b6106be565b906080828203126107f9576107b6815f8401610372565b926107c48260208501610372565b926107d283604083016102c3565b92606082013567ffffffffffffffff81116107f4576107f1920161077c565b90565b610150565b61014c565b346108305761081a61081136600461079f565b92919091610ed3565b610822610142565b8061082c816103ae565b0390f35b610148565b346108655761086161085061084b3660046102d2565b610f99565b610858610142565b9182918261025f565b0390f35b610148565b9190604083820312610892578061088661088f925f8601610372565b93602001610372565b90565b61014c565b346108c8576108c46108b36108ad36600461086a565b90611058565b6108bb610142565b918291826101b3565b0390f35b610148565b346108fb576108e56108e0366004610515565b6110e5565b6108ed610142565b806108f7816103ae565b0390f35b610148565b5f80fd5b5f90565b610910610904565b508061092b6109256380ac58cd60e01b610154565b91610154565b14801561094f575b90811561093f575b5090565b61094991506110f0565b5f61093b565b508061096a610964635b5e139f60e01b610154565b91610154565b14610933565b606090565b634e487b7160e01b5f52602260045260245ffd5b90600160028304921680156109a9575b60208310146109a457565b610975565b91607f1691610999565b60209181520190565b5f5260205f2090565b905f92918054906109df6109d883610989565b80946109b3565b916001811690815f14610a3657506001146109fa575b505050565b610a0791929394506109bc565b915f925b818410610a1e57505001905f80806109f5565b60018160209295939554848601520191019290610a0b565b92949550505060ff19168252151560200201905f80806109f5565b90610a5b916109c5565b90565b90610a7e610a7792610a6e610142565b93848092610a51565b03836106da565b565b610a8990610a5e565b90565b610a94610970565b50610a9e5f610a80565b90565b5f90565b610ac190610ab1610aa1565b50610abb81611116565b50611182565b90565b90610ad89190610ad26111a1565b916111ae565b565b5f90565b5f1c90565b90565b610af2610af791610ade565b610ae3565b90565b610b049054610ae6565b90565b610b0f610ada565b50610b1a6007610afa565b90565b90565b90565b610b37610b32610b3c92610b1d565b610b20565b6102f0565b90565b610b4890610b23565b90565b604090610b74610b7b9496959396610b6a60608401985f850190610307565b60208301906103e7565b0190610307565b565b919080610b9a610b94610b8f5f610b3f565b6102fb565b916102fb565b14610bf157610bb29082610bac6111a1565b91611237565b9182610bc6610bc0836102fb565b916102fb565b03610bd057505050565b610bed9091925f9384936364283d7b60e01b855260048501610b4b565b0390fd5b610c14610bfd5f610b3f565b5f918291633250574960e11b835260048301610314565b0390fd5b67ffffffffffffffff8111610c3657610c32602091610224565b0190565b6106c6565b90610c4d610c4883610c18565b610703565b918252565b610c5b5f610c3b565b90565b610c66610c52565b90565b91610c7d9291610c77610c5e565b92610ed3565b565b610c9190610c8b610aa1565b50611116565b90565b90610ca691610ca16113b8565b610d33565b90565b634e487b7160e01b5f52601160045260245ffd5b610cc6906102ac565b5f198114610cd45760010190565b610ca9565b5f1b90565b90610cea5f1991610cd9565b9181191691161790565b610d08610d03610d0d926102ac565b610b20565b6102ac565b90565b90565b90610d28610d23610d2f92610cf4565b610d10565b8254610cde565b9055565b90610d659150610d55610d4e610d496007610afa565b610cbd565b6007610d13565b610d5f6007610afa565b90611406565b610d6f6007610afa565b90565b610d8390610d7e610ada565b610c94565b90565b610d9a610d95610d9f926102f0565b610b20565b6102f0565b90565b610dab90610d86565b90565b610db790610da2565b90565b90610dc490610dae565b5f5260205260405f2090565b610dd8610ada565b5080610df4610dee610de95f610b3f565b6102fb565b916102fb565b14610e0f57610e07610e0c916003610dba565b610afa565b90565b610e32610e1b5f610b3f565b5f9182916322718ad960e21b835260048301610314565b0390fd5b610e3e6113b8565b610e46610e48565b565b610e59610e545f610b3f565b61141c565b565b610e63610e36565b565b60018060a01b031690565b610e7c610e8191610ade565b610e65565b90565b610e8e9054610e70565b90565b610e99610aa1565b50610ea46006610e84565b90565b610eaf610970565b50610eba6001610a80565b90565b610ed191610ec96111a1565b9190916114c2565b565b91610ef79391610ee584828491610b7d565b610eed6111a1565b93909192936116d3565b565b90565b5190565b610f14610f0f610f1992610b1d565b610b20565b6102ac565b90565b610f24610c52565b90565b905090565b610f51610f4892602092610f3f8161020c565b94858093610f27565b93849101610219565b0190565b610f6390610f699392610f2c565b90610f2c565b90565b610f8b9291610f9791610f7d610142565b948592602084019283610f55565b908103825203836106da565b565b610fa1610970565b50610fab81611116565b50610fb4611827565b90610fc6610fc183610ef9565b610efc565b610fd8610fd25f610f00565b916102ac565b115f14610ff657610fec610ff292916118cb565b90610f6c565b5b90565b5050611000610f1c565b610ff3565b9061100f90610dae565b5f5260205260405f2090565b9061102590610dae565b5f5260205260405f2090565b60ff1690565b61104361104891610ade565b611031565b90565b6110559054611037565b90565b61107d916110736110789261106b610904565b506005611005565b61101b565b61104b565b90565b6110919061108c6113b8565b611093565b565b806110ae6110a86110a35f610b3f565b6102fb565b916102fb565b146110be576110bc9061141c565b565b6110e16110ca5f610b3f565b5f918291631e4fbdf760e01b835260048301610314565b0390fd5b6110ee90611080565b565b6110f8610904565b5061111261110c6301ffc9a760e01b610154565b91610154565b1490565b61111e610aa1565b5061112881611974565b908161114461113e6111395f610b3f565b6102fb565b916102fb565b1461114d575090565b611168905f918291637e27328960e01b8352600483016103f4565b0390fd5b9061117690610cf4565b5f5260205260405f2090565b61119961119e91611191610aa1565b50600461116c565b610e84565b90565b6111a9610aa1565b503390565b916111bc9291600192611993565b565b90565b6111d56111d06111da926111be565b610b20565b6102ac565b90565b906111e891036102ac565b90565b906111f691016102ac565b90565b9061120a60018060a01b0391610cd9565b9181191691161790565b90565b9061122c61122761123392610dae565b611214565b82546111f9565b9055565b90611240610aa1565b5061124a81611974565b928061126661126061125b5f610b3f565b6102fb565b916102fb565b036113a5575b508261128861128261127d5f610b3f565b6102fb565b916102fb565b03611351575b816112a96112a361129e5f610b3f565b6102fb565b916102fb565b0361131b575b6112c4826112bf6002849061116c565b611217565b82916113026112fc6112f67fddf252ad1be2c89b69c2b068fc378daa952ba7f163c4a11628f55a4df523b3ef95610dae565b92610dae565b92610cf4565b9261130b610142565b80611315816103ae565b0390a490565b61134c61132860016111c1565b61134661133760038690610dba565b9161134183610afa565b6111eb565b90610d13565b6112af565b61136f61135d5f610b3f565b826113675f610b3f565b905f92611993565b6113a061137c60016111c1565b61139a61138b60038790610dba565b9161139583610afa565b6111dd565b90610d13565b61128e565b6113b29084908391611b00565b5f61126c565b6113c0610e91565b6113d96113d36113ce6111a1565b6102fb565b916102fb565b036113e057565b6114026113eb6111a1565b5f91829163118cdaa760e01b835260048301610314565b0390fd5b9061141a9190611414610c5e565b91611b7c565b565b6114266006610e84565b611431826006611217565b9061146561145f7f8be0079c531659141344cd1fd0a4f28419497f9722a3daafe3b4186f6b6457e093610dae565b91610dae565b9161146e610142565b80611478816103ae565b0390a3565b9061148960ff91610cd9565b9181191691161790565b61149c906101a1565b90565b90565b906114b76114b26114be92611493565b61149f565b825461147d565b9055565b919091806114e06114da6114d55f610b3f565b6102fb565b916102fb565b1461159357826115006114fa6114f55f610b3f565b6102fb565b916102fb565b14611574576115248261151f61151860058590611005565b869061101b565b6114a2565b91909161156f61155d6115577f17307eab39ab6107e8899845ad3d59bd9653f200f220920489ca2b5937696c3193610dae565b93610dae565b93611566610142565b918291826101b3565b0390a3565b61158f835f918291630b61174360e31b835260048301610314565b0390fd5b6115b661159f5f610b3f565b5f91829163a9fbf51f60e01b835260048301610314565b0390fd5b6115c390610d86565b90565b6115cf906115ba565b90565b6115db90610da2565b90565b60e01b90565b905051906115f182610160565b565b9060208282031261160c57611609915f016115e4565b90565b61014c565b60209181520190565b6116396116426020936116479361163081610efc565b93848093611611565b95869101610219565b610224565b0190565b909261167e9061167461168b969461166a60808601975f870190610307565b6020850190610307565b60408301906103e7565b606081840391015261161a565b90565b906116a061169b83610718565b610703565b918252565b606090565b3d5f146116c5576116ba3d61168e565b903d5f602084013e5b565b6116cd6116a5565b906116c3565b9193843b6116e96116e35f610f00565b916102ac565b116116f6575b5050505050565b61172e5f60209461173961171161170c8a6115c6565b6115d2565b9463150b7a02929698611722610142565b998a98899788966115de565b86526004860161164b565b03925af180915f926117f7575b50155f146117b45750600161176157505b5f808080806116ef565b6117696116aa565b9061177382610efc565b61178561177f5f610f00565b916102ac565b145f146117ab576117a7905f918291633250574960e11b835260048301610314565b0390fd5b50602081519101fd5b6117cd6117c7630a85bd0160e11b610154565b91610154565b036117d85750611757565b6117f3905f918291633250574960e11b835260048301610314565b0390fd5b61181991925060203d8111611820575b61181181836106da565b8101906115f3565b905f611746565b503d611807565b61182f610970565b50611838610f1c565b90565b369037565b9061186561184d83610c3b565b9260208061185b8693610c18565b920191039061183b565b565b600161187391036102ac565b90565b90565b61188d61188861189292611876565b610b20565b6102ac565b90565b634e487b7160e01b5f52601260045260245ffd5b6118b56118bb916102ac565b916102ac565b9081156118c6570490565b611895565b6118d3610970565b506118f06118e082611d1e565b6118ea60016111c1565b906111eb565b906118fa82611840565b91611903610ada565b5060208301015b60011561196d5761191d61194991611867565b916f181899199a1a9b1b9c1cb0b131b232b360811b600a82061a8353611943600a611879565b906118a9565b8061195c6119565f610f00565b916102ac565b14611967579061190a565b50505b90565b505061196a565b61198b61199091611983610aa1565b50600261116c565b610e84565b90565b919092808015611aba575b6119bc575b5050906119b56119ba9291600461116c565b611217565b565b6119c584611116565b91806119e16119db6119d65f610b3f565b6102fb565b916102fb565b141580611a9f575b80611a85575b611a665750916119b5916119ba9493611a0b575b5091926119a3565b818490611a4a611a44611a3e7f8c5be1e5ebec7d5bd14f71427d1e84f3dd0314c0f7b2291e5b200ac8c7c3b92595610dae565b92610dae565b92610cf4565b92611a53610142565b80611a5d816103ae565b0390a45f611a03565b611a81905f91829163a9fbf51f60e01b835260048301610314565b0390fd5b50611a9a611a94848390611058565b156101a1565b6119ef565b5082611ab3611aad836102fb565b916102fb565b14156119e9565b5081611ad6611ad0611acb5f610b3f565b6102fb565b916102fb565b141561199e565b916020611afe929493611af760408201965f830190610307565b01906103e7565b565b611b15611b0f82848691611f7f565b156101a1565b611b1e57505050565b611b38611b32611b2d5f610b3f565b6102fb565b916102fb565b145f14611b5e57611b5a825f918291637e27328960e01b8352600483016103f4565b0390fd5b611b785f92839263177e802f60e01b845260048401611add565b0390fd5b9091611ba892611b8d83829061201f565b611b956111a1565b92611b9f5f610b3f565b909192936116d3565b565b90565b611bc1611bbc611bc692611baa565b610b20565b6102ac565b90565b90565b611be0611bdb611be592611bc9565b610b20565b6102ac565b90565b90565b611bff611bfa611c0492611be8565b610b20565b6102ac565b90565b90565b611c1e611c19611c2392611c07565b610b20565b6102ac565b90565b90565b611c3d611c38611c4292611c26565b610b20565b6102ac565b90565b90565b611c5c611c57611c6192611c45565b610b20565b6102ac565b90565b90565b611c7b611c76611c8092611c64565b610b20565b6102ac565b90565b90565b611c9a611c95611c9f92611c83565b610b20565b6102ac565b90565b90565b611cb9611cb4611cbe92611ca2565b610b20565b6102ac565b90565b90565b611cd8611cd3611cdd92611cc1565b610b20565b6102ac565b90565b90565b611cf7611cf2611cfc92611ce0565b610b20565b6102ac565b90565b90565b611d16611d11611d1b92611cff565b610b20565b6102ac565b90565b611d26610ada565b50611d305f610f00565b9080611d5f611d597a184f03e93ff9f4daa797ed6e38ed64bf6a1f010000000000000000611bad565b916102ac565b1015611f37575b80611d87611d816d04ee2d6d415b85acef8100000000611beb565b916102ac565b1015611efc575b80611da8611da2662386f26fc10000611c29565b916102ac565b1015611ec8575b80611dc6611dc06305f5e100611c67565b916102ac565b1015611e97575b80611de2611ddc612710611ca5565b916102ac565b1015611e68575b80611dfd611df76064611ce3565b916102ac565b1015611e3a575b611e17611e11600a611879565b916102ac565b1015611e21575b90565b611e3590611e2f60016111c1565b906111eb565b611e1e565b611e51611e6291611e4b6064611ce3565b906118a9565b91611e5c6002611d02565b906111eb565b90611e04565b611e80611e9191611e7a612710611ca5565b906118a9565b91611e8b6004611cc4565b906111eb565b90611de9565b611eb1611ec291611eab6305f5e100611c67565b906118a9565b91611ebc6008611c86565b906111eb565b90611dcd565b611ee5611ef691611edf662386f26fc10000611c29565b906118a9565b91611ef06010611c48565b906111eb565b90611daf565b611f20611f3191611f1a6d04ee2d6d415b85acef8100000000611beb565b906118a9565b91611f2b6020611c0a565b906111eb565b90611d8e565b611f68611f7991611f627a184f03e93ff9f4daa797ed6e38ed64bf6a1f010000000000000000611bad565b906118a9565b91611f736040611bcc565b906111eb565b90611d66565b9190611f89610904565b5080611fa5611f9f611f9a5f610b3f565b6102fb565b916102fb565b14159283611fb4575b50505090565b8091929350611fcb611fc5846102fb565b916102fb565b1490811561200d575b50918215611fe7575b50505f8080611fae565b612005919250611ff9611fff91611182565b926102fb565b916102fb565b145f80611fdd565b61201991508290611058565b5f611fd4565b908161203b6120356120305f610b3f565b6102fb565b916102fb565b1461209c57612054919061204e5f610b3f565b91611237565b61206e6120686120635f610b3f565b6102fb565b916102fb565b0361207557565b6120986120815f610b3f565b5f9182916339e3563760e11b835260048301610314565b0390fd5b6120bf6120a85f610b3f565b5f918291633250574960e11b835260048301610314565b0390fdfea26469706673582212203ee1a1c8c63baa0dd62393928c1ee2a5278fa738f0bb121a1ed6afa44d23d65f64736f6c63430008210033","linkReferences":{}},"methodIdentifiers":{"approve(address,uint256)":"095ea7b3","balanceOf(address)":"70a08231","getApproved(uint256)":"081812fc","isApprovedForAll(address,address)":"e985e9c5","mint(address)":"6a627842","name()":"06fdde03","owner()":"8da5cb5b","ownerOf(uint256)":"6352211e","renounceOwnership()":"715018a6","safeTransferFrom(address,address,uint256)":"42842e0e","safeTransferFrom(address,address,uint256,bytes)":"b88d4fde","setApprovalForAll(address,bool)":"a22cb465","supportsInterface(bytes4)":"01ffc9a7","symbol()":"95d89b41","tokenURI(uint256)":"c87b56dd","totalSupply()":"18160ddd","transferFrom(address,address,uint256)":"23b872dd","transferOwnership(address)":"f2fde38b"},"id":40}